{
  "contractName": "Lottery",
  "abi": [
    {
      "constant": true,
      "inputs": [],
      "name": "owner",
      "outputs": [
        {
          "name": "",
          "type": "address"
        }
      ],
      "payable": false,
      "stateMutability": "view",
      "type": "function"
    },
    {
      "inputs": [],
      "payable": false,
      "stateMutability": "nonpayable",
      "type": "constructor"
    },
    {
      "anonymous": false,
      "inputs": [
        {
          "indexed": false,
          "name": "softCap",
          "type": "uint256"
        },
        {
          "indexed": false,
          "name": "hardCap",
          "type": "uint256"
        },
        {
          "indexed": false,
          "name": "villaPrice",
          "type": "uint256"
        },
        {
          "indexed": false,
          "name": "ticketPrice",
          "type": "uint256"
        },
        {
          "indexed": false,
          "name": "startTime",
          "type": "uint256"
        }
      ],
      "name": "lottoInitialized",
      "type": "event"
    },
    {
      "anonymous": false,
      "inputs": [
        {
          "indexed": false,
          "name": "buyer",
          "type": "address"
        },
        {
          "indexed": false,
          "name": "amount",
          "type": "uint256"
        }
      ],
      "name": "ticketPurchased",
      "type": "event"
    },
    {
      "constant": true,
      "inputs": [],
      "name": "getData",
      "outputs": [
        {
          "name": "",
          "type": "uint256"
        },
        {
          "name": "",
          "type": "uint256"
        },
        {
          "name": "",
          "type": "uint256"
        },
        {
          "name": "",
          "type": "uint256"
        },
        {
          "name": "",
          "type": "uint256"
        }
      ],
      "payable": false,
      "stateMutability": "view",
      "type": "function"
    },
    {
      "constant": true,
      "inputs": [],
      "name": "getTicketPrice",
      "outputs": [
        {
          "name": "",
          "type": "uint256"
        }
      ],
      "payable": false,
      "stateMutability": "view",
      "type": "function"
    },
    {
      "constant": true,
      "inputs": [],
      "name": "getTicketAmount",
      "outputs": [
        {
          "name": "",
          "type": "uint256"
        }
      ],
      "payable": false,
      "stateMutability": "view",
      "type": "function"
    },
    {
      "constant": true,
      "inputs": [],
      "name": "getbuyerPosition",
      "outputs": [
        {
          "name": "",
          "type": "address[]"
        }
      ],
      "payable": false,
      "stateMutability": "view",
      "type": "function"
    },
    {
      "constant": true,
      "inputs": [
        {
          "name": "buyer",
          "type": "address"
        }
      ],
      "name": "getBuyerPositions",
      "outputs": [
        {
          "name": "",
          "type": "uint256[]"
        }
      ],
      "payable": false,
      "stateMutability": "view",
      "type": "function"
    },
    {
      "constant": false,
      "inputs": [
        {
          "name": "soft",
          "type": "uint256"
        },
        {
          "name": "hard",
          "type": "uint256"
        },
        {
          "name": "villa",
          "type": "uint256"
        },
        {
          "name": "ticket",
          "type": "uint256"
        },
        {
          "name": "time",
          "type": "uint256"
        }
      ],
      "name": "initialize",
      "outputs": [],
      "payable": false,
      "stateMutability": "nonpayable",
      "type": "function"
    },
    {
      "constant": false,
      "inputs": [],
      "name": "buyTicket",
      "outputs": [],
      "payable": true,
      "stateMutability": "payable",
      "type": "function"
    }
  ],
  "bytecode": "0x608060405260008060146101000a81548160ff02191690831515021790555034801561002a57600080fd5b50336000806101000a81548173ffffffffffffffffffffffffffffffffffffffff021916908373ffffffffffffffffffffffffffffffffffffffff1602179055506109e08061007a6000396000f30060806040526004361061008e576000357c0100000000000000000000000000000000000000000000000000000000900463ffffffff1680632eea1290146100935780633bc5de301461012b5780635473c80c146101725780636cf69958146101de57806387bb7ae0146102095780638da5cb5b14610234578063dcbab6081461028b578063edca914c146102e0575b600080fd5b34801561009f57600080fd5b506100d4600480360381019080803573ffffffffffffffffffffffffffffffffffffffff1690602001909291905050506102ea565b6040518080602001828103825283818151815260200191508051906020019060200280838360005b838110156101175780820151818401526020810190506100fc565b505050509050019250505060405180910390f35b34801561013757600080fd5b50610140610485565b604051808681526020018581526020018481526020018381526020018281526020019550505050505060405180910390f35b34801561017e57600080fd5b506101876104ad565b6040518080602001828103825283818151815260200191508051906020019060200280838360005b838110156101ca5780820151818401526020810190506101af565b505050509050019250505060405180910390f35b3480156101ea57600080fd5b506101f361053b565b6040518082815260200191505060405180910390f35b34801561021557600080fd5b5061021e610582565b6040518082815260200191505060405180910390f35b34801561024057600080fd5b5061024961058c565b604051808273ffffffffffffffffffffffffffffffffffffffff1673ffffffffffffffffffffffffffffffffffffffff16815260200191505060405180910390f35b34801561029757600080fd5b506102de60048036038101908080359060200190929190803590602001909291908035906020019092919080359060200190929190803590602001909291905050506105b1565b005b6102e861071d565b005b6060600080606060008060009450600093505b60028054905084101561038d578673ffffffffffffffffffffffffffffffffffffffff1660028581548110151561033057fe5b9060005260206000200160009054906101000a900473ffffffffffffffffffffffffffffffffffffffff1673ffffffffffffffffffffffffffffffffffffffff1614156103805784806001019550505b83806001019450506102fd565b846040519080825280602002602001820160405280156103bc5781602001602082028038833980820191505090505b50925060009150600090505b600280549050811015610478578673ffffffffffffffffffffffffffffffffffffffff166002828154811015156103fb57fe5b9060005260206000200160009054906101000a900473ffffffffffffffffffffffffffffffffffffffff1673ffffffffffffffffffffffffffffffffffffffff16141561046b57818060010192505080836001840381518110151561045c57fe5b90602001906020020181815250505b80806001019150506103c8565b8295505050505050919050565b6000806000806000600354600454600554600654600754945094509450945094509091929394565b6060600280548060200260200160405190810160405280929190818152602001828054801561053157602002820191906000526020600020905b8160009054906101000a900473ffffffffffffffffffffffffffffffffffffffff1673ffffffffffffffffffffffffffffffffffffffff16815260200190600101908083116104e7575b5050505050905090565b6000600160003373ffffffffffffffffffffffffffffffffffffffff1673ffffffffffffffffffffffffffffffffffffffff16815260200190815260200160002054905090565b6000600654905090565b6000809054906101000a900473ffffffffffffffffffffffffffffffffffffffff1681565b3373ffffffffffffffffffffffffffffffffffffffff166000809054906101000a900473ffffffffffffffffffffffffffffffffffffffff1673ffffffffffffffffffffffffffffffffffffffff16141515610675576040517f08c379a00000000000000000000000000000000000000000000000000000000081526004018080602001828103825260098152602001807f4e6f74206f776e6572000000000000000000000000000000000000000000000081525060200191505060405180910390fd5b846003819055508360048190555082600581905550816006819055508042016007819055507f7835784bf717bb333bfdc4e8ff60b9837afa3b8d61bb6df5a8539dcddedfa21e600354600454600554600654600754604051808681526020018581526020018481526020018381526020018281526020019550505050505060405180910390a16001600060146101000a81548160ff0219169083151502179055505050505050565b60008060149054906101000a900460ff1615156107a2576040517f08c379a000000000000000000000000000000000000000000000000000000000815260040180806020018281038252601b8152602001807f4c6f7474657279206973206e6f7420696e697469616c697a65642e000000000081525060200191505060405180910390fd5b60003411151561081a576040517f08c379a000000000000000000000000000000000000000000000000000000000815260040180806020018281038252600e8152602001807f4e6f2065746865722073656e742e00000000000000000000000000000000000081525060200191505060405180910390fd5b3490506108326006548261098a90919063ffffffff16565b600160003373ffffffffffffffffffffffffffffffffffffffff1673ffffffffffffffffffffffffffffffffffffffff168152602001908152602001600020600082825401925050819055506108936006548261098a90919063ffffffff16565b60086000828254019250508190555060023390806001815401808255809150509060018203906000526020600020016000909192909190916101000a81548173ffffffffffffffffffffffffffffffffffffffff021916908373ffffffffffffffffffffffffffffffffffffffff160217905550507f80f8cde1dbefb5cb9fab659a41081b98fa88b0e4879ec7f6c870d8c8129e27e03361093f6006548461098a90919063ffffffff16565b604051808373ffffffffffffffffffffffffffffffffffffffff1673ffffffffffffffffffffffffffffffffffffffff1681526020018281526020019250505060405180910390a150565b60008060008311151561099c57600080fd5b82848115156109a757fe5b04905080915050929150505600a165627a7a72305820b7453070a9e0b5fdfd5c0779bfcec1353081c6983c948c71989db510a46a11540029",
  "source": "pragma solidity ^0.4.23;\nimport \"./SafeMath.sol\";\n\ncontract Lottery {\n    using SafeMath for uint;\n\n    address public owner;\n\n    bool isInitialized = false;\n\n    event lottoInitialized (\n        uint softCap,\n        uint hardCap,\n        uint villaPrice,\n        uint ticketPrice,\n        uint startTime\n    );\n\n    event ticketPurchased (\n        address buyer,\n        uint amount\n    );\n\n    mapping (address => uint) ownerTicketCount;\n\n    address[] buyerPosition;\n\n    uint softCap;\n    uint hardCap;\n    uint villaPrice;\n    uint ticketPrice;\n    uint startTime;\n\n    uint ticketsPurchased;\n\n    constructor() public {\n        owner = msg.sender;\n    }\n\n    modifier onlyOwner() {\n        require(owner == msg.sender, \"Not owner\");\n        _;\n    }\n\n    /**\n    *   @dev Helper/Getter functions\n    */\n\n    function getData() public view returns (uint, uint, uint, uint, uint) {\n        return (softCap, hardCap, villaPrice, ticketPrice, startTime);\n    }\n\n    function getTicketPrice() public view returns (uint) {\n        return ticketPrice;\n    }\n\n    function getTicketAmount() public view returns (uint) {\n        return (ownerTicketCount[msg.sender]);\n    }\n\n    function getbuyerPosition() public view returns (address[] memory) {\n        return buyerPosition;\n    }\n\n    function getBuyerPositions(address buyer) public view returns (uint[] memory) {\n\n        uint counter = 0;\n\n        for (uint i = 0; i < buyerPosition.length; i++) {\n            if (buyerPosition[i] == buyer) {\n                counter++;\n            }\n        } \n\n        uint[] memory positions = new uint[](counter);\n        uint p = 0;\n\n        for (uint z = 0; z < buyerPosition.length; z++) {\n            if (buyerPosition[z] == buyer) {\n                p++;\n                positions[p - 1] = z;\n            }\n        } \n\n        return positions;\n    }\n\n    \n    /**\n    *   @dev Initialize the lottery with the appropriate values. Only available to contract owner.\n     */\n\n    function initialize(uint256 soft, uint256 hard, uint256 villa, uint ticket, uint256 time) public onlyOwner {\n\n        softCap = soft;\n        hardCap = hard;\n        villaPrice = villa;\n        ticketPrice = ticket;\n        startTime = now + time;\n\n        emit lottoInitialized(softCap, hardCap, villaPrice, ticketPrice, startTime);\n        isInitialized = true;\n    }\n\n    /**\n    *   @dev Buy an amount of tickets based on the amount of ether sent and the ticket price. Available to      all lottery participants.\n     */\n\n    function buyTicket() public payable {\n        require(isInitialized, \"Lottery is not initialized.\");\n        require(msg.value > 0, \"No ether sent.\");\n\n        uint value = msg.value;\n        ownerTicketCount[msg.sender] += value.div(ticketPrice);\n        ticketsPurchased += value.div(ticketPrice); \n\n        //instead of having ticket IDs, this design tracks the order in which addresses participate.\n        buyerPosition.push(msg.sender);\n\n        emit ticketPurchased(msg.sender, value.div(ticketPrice));\n    }\n\n}",
  "sourcePath": "/Users/CryptoWork/Desktop/Russel_Lottery/contracts/Lottery.sol",
  "compiler": {
    "name": "solc",
    "version": "0.4.24+commit.e67f0147.Emscripten.clang"
  },
  "schemaVersion": "2.0.1",
  "updatedAt": "2018-11-25T16:47:33.505Z"
}