{
  "contractName": "Lottery",
  "abi": [
    {
      "constant": true,
      "inputs": [],
      "name": "ticketPrice",
      "outputs": [
        {
          "name": "",
          "type": "uint256"
        }
      ],
      "payable": false,
      "stateMutability": "view",
      "type": "function"
    },
    {
      "constant": true,
      "inputs": [],
      "name": "playerCount",
      "outputs": [
        {
          "name": "",
          "type": "uint256"
        }
      ],
      "payable": false,
      "stateMutability": "view",
      "type": "function"
    },
    {
      "constant": true,
      "inputs": [],
      "name": "isInitialized",
      "outputs": [
        {
          "name": "",
          "type": "bool"
        }
      ],
      "payable": false,
      "stateMutability": "view",
      "type": "function"
    },
    {
      "constant": true,
      "inputs": [],
      "name": "startTime",
      "outputs": [
        {
          "name": "",
          "type": "uint256"
        }
      ],
      "payable": false,
      "stateMutability": "view",
      "type": "function"
    },
    {
      "constant": true,
      "inputs": [],
      "name": "testValue",
      "outputs": [
        {
          "name": "",
          "type": "uint256"
        }
      ],
      "payable": false,
      "stateMutability": "view",
      "type": "function"
    },
    {
      "constant": true,
      "inputs": [],
      "name": "owner",
      "outputs": [
        {
          "name": "",
          "type": "address"
        }
      ],
      "payable": false,
      "stateMutability": "view",
      "type": "function"
    },
    {
      "constant": true,
      "inputs": [],
      "name": "softCap",
      "outputs": [
        {
          "name": "",
          "type": "uint256"
        }
      ],
      "payable": false,
      "stateMutability": "view",
      "type": "function"
    },
    {
      "constant": true,
      "inputs": [],
      "name": "ticketsPurchased",
      "outputs": [
        {
          "name": "",
          "type": "uint256"
        }
      ],
      "payable": false,
      "stateMutability": "view",
      "type": "function"
    },
    {
      "constant": true,
      "inputs": [],
      "name": "hardCap",
      "outputs": [
        {
          "name": "",
          "type": "uint256"
        }
      ],
      "payable": false,
      "stateMutability": "view",
      "type": "function"
    },
    {
      "inputs": [],
      "payable": true,
      "stateMutability": "payable",
      "type": "constructor"
    },
    {
      "payable": true,
      "stateMutability": "payable",
      "type": "fallback"
    },
    {
      "anonymous": false,
      "inputs": [
        {
          "indexed": false,
          "name": "softCap",
          "type": "uint256"
        },
        {
          "indexed": false,
          "name": "hardCap",
          "type": "uint256"
        },
        {
          "indexed": false,
          "name": "ticketPrice",
          "type": "uint256"
        },
        {
          "indexed": false,
          "name": "startTime",
          "type": "uint256"
        }
      ],
      "name": "lottoInitialized",
      "type": "event"
    },
    {
      "anonymous": false,
      "inputs": [
        {
          "indexed": false,
          "name": "buyer",
          "type": "address"
        },
        {
          "indexed": false,
          "name": "amount",
          "type": "uint256"
        }
      ],
      "name": "ticketPurchased",
      "type": "event"
    },
    {
      "anonymous": false,
      "inputs": [
        {
          "indexed": false,
          "name": "number",
          "type": "uint256"
        }
      ],
      "name": "logNumberReceived",
      "type": "event"
    },
    {
      "anonymous": false,
      "inputs": [
        {
          "indexed": false,
          "name": "description",
          "type": "string"
        }
      ],
      "name": "logQuery",
      "type": "event"
    },
    {
      "anonymous": false,
      "inputs": [
        {
          "indexed": false,
          "name": "winner",
          "type": "address"
        }
      ],
      "name": "winner",
      "type": "event"
    },
    {
      "anonymous": false,
      "inputs": [
        {
          "indexed": false,
          "name": "sender",
          "type": "address"
        },
        {
          "indexed": false,
          "name": "amount",
          "type": "uint256"
        }
      ],
      "name": "deposit",
      "type": "event"
    },
    {
      "constant": true,
      "inputs": [
        {
          "name": "_owner",
          "type": "address"
        }
      ],
      "name": "getTicketAmount",
      "outputs": [
        {
          "name": "",
          "type": "uint256"
        }
      ],
      "payable": false,
      "stateMutability": "view",
      "type": "function"
    },
    {
      "constant": true,
      "inputs": [],
      "name": "getValues",
      "outputs": [
        {
          "name": "",
          "type": "uint256"
        },
        {
          "name": "",
          "type": "uint256"
        },
        {
          "name": "",
          "type": "uint256"
        }
      ],
      "payable": false,
      "stateMutability": "view",
      "type": "function"
    },
    {
      "constant": true,
      "inputs": [],
      "name": "contractBalance",
      "outputs": [
        {
          "name": "",
          "type": "uint256"
        }
      ],
      "payable": false,
      "stateMutability": "view",
      "type": "function"
    },
    {
      "constant": false,
      "inputs": [
        {
          "name": "soft",
          "type": "uint256"
        },
        {
          "name": "hard",
          "type": "uint256"
        },
        {
          "name": "ticket",
          "type": "uint256"
        },
        {
          "name": "time",
          "type": "uint256"
        }
      ],
      "name": "initialize",
      "outputs": [],
      "payable": false,
      "stateMutability": "nonpayable",
      "type": "function"
    },
    {
      "constant": false,
      "inputs": [
        {
          "name": "buyer",
          "type": "address"
        }
      ],
      "name": "freeTicket",
      "outputs": [],
      "payable": false,
      "stateMutability": "nonpayable",
      "type": "function"
    },
    {
      "constant": false,
      "inputs": [],
      "name": "buyTicket",
      "outputs": [],
      "payable": true,
      "stateMutability": "payable",
      "type": "function"
    },
    {
      "constant": false,
      "inputs": [
        {
          "name": "myid",
          "type": "bytes32"
        },
        {
          "name": "result",
          "type": "string"
        }
      ],
      "name": "__callback",
      "outputs": [],
      "payable": false,
      "stateMutability": "nonpayable",
      "type": "function"
    },
    {
      "constant": false,
      "inputs": [
        {
          "name": "qId",
          "type": "bytes32"
        },
        {
          "name": "result",
          "type": "string"
        },
        {
          "name": "proof",
          "type": "bytes"
        }
      ],
      "name": "__callback",
      "outputs": [],
      "payable": false,
      "stateMutability": "nonpayable",
      "type": "function"
    },
    {
      "constant": false,
      "inputs": [],
      "name": "drawWinner",
      "outputs": [],
      "payable": false,
      "stateMutability": "nonpayable",
      "type": "function"
    },
    {
      "constant": true,
      "inputs": [],
      "name": "getQuery",
      "outputs": [
        {
          "name": "",
          "type": "string"
        }
      ],
      "payable": false,
      "stateMutability": "view",
      "type": "function"
    },
    {
      "constant": false,
      "inputs": [],
      "name": "withdraw",
      "outputs": [],
      "payable": false,
      "stateMutability": "nonpayable",
      "type": "function"
    }
  ],
  "bytecode": "0x600f805460ff1916905561020060405261015f6080818152906200293b60a03980516200003591601291602090910190620009a4565b50608060405190810160405280604381526020017f2c20227265706c6163656d656e74223a2066616c7365247b5b6964656e74697481526020017f795d20227d227d2c20226964223a2031247b5b6964656e746974795d20227d2281526020017f7d275d000000000000000000000000000000000000000000000000000000000081525060149080519060200190620000d0929190620009a4565b5060068054600160a060020a03191633179055600160085562000100633b9aca006401000000006200013a810204565b620001347f11000000000000000000000000000000000000000000000000000000000000006401000000006200037a810204565b62000a46565b600054600160a060020a031615806200017057506000546200016e90600160a060020a0316640100000000620005bf810204565b155b156200018d576200018b6000640100000000620005c3810204565b505b6000809054906101000a9004600160a060020a0316600160a060020a03166338cc48316040518163ffffffff167c0100000000000000000000000000000000000000000000000000000000028152600401602060405180830381600087803b158015620001f957600080fd5b505af11580156200020e573d6000803e3d6000fd5b505050506040513d60208110156200022557600080fd5b5051600154600160a060020a03908116911614620002f7576000809054906101000a9004600160a060020a0316600160a060020a03166338cc48316040518163ffffffff167c0100000000000000000000000000000000000000000000000000000000028152600401602060405180830381600087803b158015620002a957600080fd5b505af1158015620002be573d6000803e3d6000fd5b505050506040513d6020811015620002d557600080fd5b505160018054600160a060020a031916600160a060020a039092169190911790555b600154604080517fca6ad1e4000000000000000000000000000000000000000000000000000000008152600481018490529051600160a060020a039092169163ca6ad1e49160248082019260009290919082900301818387803b1580156200035e57600080fd5b505af115801562000373573d6000803e3d6000fd5b5050505050565b600054600160a060020a03161580620003b05750600054620003ae90600160a060020a0316640100000000620005bf810204565b155b15620003cd57620003cb6000640100000000620005c3810204565b505b6000809054906101000a9004600160a060020a0316600160a060020a03166338cc48316040518163ffffffff167c0100000000000000000000000000000000000000000000000000000000028152600401602060405180830381600087803b1580156200043957600080fd5b505af11580156200044e573d6000803e3d6000fd5b505050506040513d60208110156200046557600080fd5b5051600154600160a060020a0390811691161462000537576000809054906101000a9004600160a060020a0316600160a060020a03166338cc48316040518163ffffffff167c0100000000000000000000000000000000000000000000000000000000028152600401602060405180830381600087803b158015620004e957600080fd5b505af1158015620004fe573d6000803e3d6000fd5b505050506040513d60208110156200051557600080fd5b505160018054600160a060020a031916600160a060020a039092169190911790555b600154604080517f688dcfd70000000000000000000000000000000000000000000000000000000081527fff00000000000000000000000000000000000000000000000000000000000000841660048201529051600160a060020a039092169163688dcfd79160248082019260009290919082900301818387803b1580156200035e57600080fd5b3b90565b6000620005d8640100000000620005de810204565b92915050565b60008062000609731d3b2638a7cc9f2cb3d298a3da7a90b67e5506ed640100000000620005bf810204565b1115620006875760008054600160a060020a031916731d3b2638a7cc9f2cb3d298a3da7a90b67e5506ed17905560408051808201909152600b81527f6574685f6d61696e6e657400000000000000000000000000000000000000000060208201526200067e906401000000006200098b810204565b50600162000988565b6000620006b173c03a2615d5efaf5f49f60b7bb6583eaec212fdf1640100000000620005bf810204565b1115620007265760008054600160a060020a03191673c03a2615d5efaf5f49f60b7bb6583eaec212fdf117905560408051808201909152600c81527f6574685f726f707374656e33000000000000000000000000000000000000000060208201526200067e906401000000006200098b810204565b60006200075073b7a07bcf2ba2f2703b24c0691b5278999c59ac7e640100000000620005bf810204565b1115620007c55760008054600160a060020a03191673b7a07bcf2ba2f2703b24c0691b5278999c59ac7e17905560408051808201909152600981527f6574685f6b6f76616e000000000000000000000000000000000000000000000060208201526200067e906401000000006200098b810204565b6000620007ef73146500cfd35b22e4a392fe0adc06de1a1368ed48640100000000620005bf810204565b1115620008645760008054600160a060020a03191673146500cfd35b22e4a392fe0adc06de1a1368ed4817905560408051808201909152600b81527f6574685f72696e6b65627900000000000000000000000000000000000000000060208201526200067e906401000000006200098b810204565b60006200088e736f485c8bf6fc43ea212e93bbf8ce046c7f1cb475640100000000620005bf810204565b1115620008c4575060008054600160a060020a031916736f485c8bf6fc43ea212e93bbf8ce046c7f1cb475179055600162000988565b6000620008ee7320e12a1f859b3feae5fb2a0a32c18f5a65555bbf640100000000620005bf810204565b111562000924575060008054600160a060020a0319167320e12a1f859b3feae5fb2a0a32c18f5a65555bbf179055600162000988565b60006200094e7351efaf4c8b3c9afbd5ab9f4bbc82784ab6ef8faa640100000000620005bf810204565b111562000984575060008054600160a060020a0319167351efaf4c8b3c9afbd5ab9f4bbc82784ab6ef8faa179055600162000988565b5060005b90565b8051620009a0906002906020840190620009a4565b5050565b828054600181600116156101000203166002900490600052602060002090601f016020900481019282601f10620009e757805160ff191683800117855562000a17565b8280016001018555821562000a17579182015b8281111562000a17578251825591602001919060010190620009fa565b5062000a2592915062000a29565b5090565b6200098891905b8082111562000a25576000815560010162000a30565b611ee58062000a566000396000f3006080604052600436106100f85763ffffffff60e060020a6000350416631209b1f6811461014c57806319eb4a901461017357806327dc297e146101a6578063302bcc571461020457806338bbfa5014610219578063392e53cd146102b55780633ccfd60b146102de5780633d0bd180146102f357806360a2da441461031457806378bd29171461033557806378e97925146103565780638af5de721461036b5780638b7afe2e146103805780638da5cb5b14610395578063906a26e0146103c657806390a7ba5b146103db5780639c742f93146103f0578063b2185bb11461047a578063edca914c1461048f578063fb86a40414610497575b600654600160a060020a0316331461010f57600080fd5b6040805133815234602082015281517f47e7ef24b3022e382e65b1298581281f0ae273ac4f76464efcf5b06769264f2f929181900390910190a15b005b34801561015857600080fd5b506101616104ac565b60408051918252519081900360200190f35b34801561017f57600080fd5b506101886104b2565b60408051938452602084019290925282820152519081900360600190f35b3480156101b257600080fd5b5060408051602060046024803582810135601f810185900485028601850190965285855261014a9583359536956044949193909101919081908401838280828437509497506104c09650505050505050565b34801561021057600080fd5b506101616104e0565b34801561022557600080fd5b5060408051602060046024803582810135601f810185900485028601850190965285855261014a95833595369560449491939091019190819084018382808284375050604080516020601f89358b018035918201839004830284018301909452808352979a9998810197919650918201945092508291508401838280828437509497506104e69650505050505050565b3480156102c157600080fd5b506102ca61066c565b604080519115158252519081900360200190f35b3480156102ea57600080fd5b5061014a610675565b3480156102ff57600080fd5b5061014a600160a060020a03600435166106f5565b34801561032057600080fd5b5061014a60043560243560443560643561090e565b34801561034157600080fd5b50610161600160a060020a0360043516610a2a565b34801561036257600080fd5b50610161610a45565b34801561037757600080fd5b50610161610a4b565b34801561038c57600080fd5b50610161610a51565b3480156103a157600080fd5b506103aa610a57565b60408051600160a060020a039092168252519081900360200190f35b3480156103d257600080fd5b50610161610a66565b3480156103e757600080fd5b50610161610a6c565b3480156103fc57600080fd5b50610405610a72565b6040805160208082528351818301528351919283929083019185019080838360005b8381101561043f578181015183820152602001610427565b50505050905090810190601f16801561046c5780820380516001836020036101000a031916815260200191505b509250505060405180910390f35b34801561048657600080fd5b5061014a610b08565b61014a610d41565b3480156104a357600080fd5b50610161610eee565b600b5481565b600954600a54600c54909192565b6040805160008152602081019091526104dc90839083906104e6565b5050565b600e5481565b60006104f0610ef4565b600160a060020a0316331461054f576040805160e560020a62461bcd02815260206004820152600d60248201527f57726f6e67206164647265737300000000000000000000000000000000000000604482015290519081900360640190fd5b60008481526011602052604090205460ff1615156105b7576040805160e560020a62461bcd02815260206004820152600a60248201527f496e76616c696420494400000000000000000000000000000000000000000000604482015290519081900360640190fd5b81516105ca906005906020850190611dd8565b506105d4836110e5565b6040805182815290519192507f4300e48b36cdb4a1d5578d2ba489ffe9e709e371f53a7d2923a9f7cecf11c5fc919081900360200190a16000848152601160205260409020805460ff191690557f2ad95786da06c547c63d0a70ed6f06fcc5af1374aaa87963d5ba8ed02a2aa7d761064b826110f8565b60408051600160a060020a039092168252519081900360200190a150505050565b600f5460ff1681565b600654600160a060020a031633146106c5576040805160e560020a62461bcd0281526020600482015260096024820152600080516020611e9a833981519152604482015290519081900360640190fd5b6040513390303180156108fc02916000818181858888f193505050501580156106f2573d6000803e3d6000fd5b50565b600654600160a060020a03163314610745576040805160e560020a62461bcd0281526020600482015260096024820152600080516020611e9a833981519152604482015290519081900360640190fd5b600f5460ff1615156107a1576040805160e560020a62461bcd02815260206004820152601b60248201527f4c6f7474657279206973206e6f7420696e697469616c697a65642e0000000000604482015290519081900360640190fd5b600160a060020a0381166000908152601060205260409020541561080f576040805160e560020a62461bcd02815260206004820152601a60248201527f427579657220616c726561647920686173207469636b6574732e000000000000604482015290519081900360640190fd5b600e5461082390600163ffffffff61122316565b600e55600160a060020a03811660009081526010602052604090205461085090600163ffffffff61122316565b600160a060020a038216600090815260106020526040902055600d5461087d90600163ffffffff61122316565b600d5560078054600180820183556000929092527fa66cc928b5edb82af9bd49922954155ab7b0942694bea4ce44661d9a8736c688018054600160a060020a031916600160a060020a03841690811790915560408051918252602082019290925281517f80f8cde1dbefb5cb9fab659a41081b98fa88b0e4879ec7f6c870d8c8129e27e0929181900390910190a150565b600654600160a060020a0316331461095e576040805160e560020a62461bcd0281526020600482015260096024820152600080516020611e9a833981519152604482015290519081900360640190fd5b600f5460ff16156109b9576040805160e560020a62461bcd02815260206004820152601f60248201527f4c6f747465727920697320616c726561647920696e697469616c697a65642100604482015290519081900360640190fd5b600f805460ff191660011790556009849055600a839055600b829055428101600c81905560408051868152602081018690528082018590526060810192909252517f99258bd20025af338b1f35533a9c6d639429c4db4affbb1e3882318e8d099ff49181900360800190a150505050565b600160a060020a031660009081526010602052604090205490565b600c5481565b60085481565b30315b90565b600654600160a060020a031681565b60095481565b600d5481565b60158054604080516020601f6002600019610100600188161502019095169490940493840181900481028201810190925282815260609390929091830182828015610afe5780601f10610ad357610100808354040283529160200191610afe565b820191906000526020600020905b815481529060010190602001808311610ae157829003601f168201915b5050505050905090565b600654600090600160a060020a03163314610b5b576040805160e560020a62461bcd0281526020600482015260096024820152600080516020611e9a833981519152604482015290519081900360640190fd5b600f5460ff161515610bb7576040805160e560020a62461bcd02815260206004820152601a60248201527f4c6f7474657279206973206e6f7420696e697469616c697a6564000000000000604482015290519081900360640190fd5b600f805460ff19169055610bc9611240565b610bd161125f565b604080518082018252600681527f6e65737465640000000000000000000000000000000000000000000000000000602080830191909152601580548451601f60026000196101006001861615020190931692909204918201849004840281018401909552808552610c989492830182828015610c8e5780601f10610c6357610100808354040283529160200191610c8e565b820191906000526020600020905b815481529060010190602001808311610c7157829003601f168201915b50505050506113a0565b600081815260116020908152604091829020805460ff1916600117905581518181526032918101919091527f4f7261636c697a65207175657279207761732073656e742e205374616e64696e818301527f6720627920666f7220726573706f6e73652e0000000000000000000000000000606082015290519192507f18d7185daabaec12aeca0c54a5d3a37eda3c6bb0b360ef3688245118e7a45dfd919081900360800190a150565b600f5460009060ff161515610da0576040805160e560020a62461bcd02815260206004820152601b60248201527f4c6f7474657279206973206e6f7420696e697469616c697a65642e0000000000604482015290519081900360640190fd5b60003411610df8576040805160e560020a62461bcd02815260206004820152600e60248201527f4e6f2065746865722073656e742e000000000000000000000000000000000000604482015290519081900360640190fd5b600b54610e0c90349063ffffffff61179116565b33600090815260106020526040902054909150610e2f908263ffffffff61122316565b33600090815260106020526040902055600d54610e52908263ffffffff61122316565b600d55600e54610e6990600163ffffffff61122316565b600e55600780546001810182556000919091527fa66cc928b5edb82af9bd49922954155ab7b0942694bea4ce44661d9a8736c688018054600160a060020a03191633908117909155604080519182526020820183905280517f80f8cde1dbefb5cb9fab659a41081b98fa88b0e4879ec7f6c870d8c8129e27e09281900390910190a150565b600a5481565b60008054600160a060020a03161580610f1f5750600054610f1d90600160a060020a03166117b4565b155b15610f3057610f2e60006117b8565b505b6000809054906101000a9004600160a060020a0316600160a060020a03166338cc48316040518163ffffffff1660e060020a028152600401602060405180830381600087803b158015610f8257600080fd5b505af1158015610f96573d6000803e3d6000fd5b505050506040513d6020811015610fac57600080fd5b5051600154600160a060020a03908116911614611061576000809054906101000a9004600160a060020a0316600160a060020a03166338cc48316040518163ffffffff1660e060020a028152600401602060405180830381600087803b15801561101557600080fd5b505af1158015611029573d6000803e3d6000fd5b505050506040513d602081101561103f57600080fd5b505160018054600160a060020a031916600160a060020a039092169190911790555b600160009054906101000a9004600160a060020a0316600160a060020a031663c281d19e6040518163ffffffff1660e060020a028152600401602060405180830381600087803b1580156110b457600080fd5b505af11580156110c8573d6000803e3d6000fd5b505050506040513d60208110156110de57600080fd5b5051905090565b60006110f28260006117c2565b92915050565b60006060600080600080600780549050604051908082528060200260200182016040528015611131578160200160208202803883390190505b509450600093505b60075484101561119e576010600060078681548110151561115657fe5b6000918252602080832090910154600160a060020a03168352820192909252604001902054855186908690811061118957fe5b60209081029091010152600190930192611139565b5060009150815b8451811015611211576111d685828151811015156111bf57fe5b60209081029091010151849063ffffffff61122316565b92508683106112095760078054829081106111ed57fe5b600091825260209091200154600160a060020a03169150611211565b6001016111a5565b611219611934565b5095945050505050565b60008282018381101561123557600080fd5b8091505b5092915050565b61124b600d546119ae565b80516106f291601391602090910190611dd8565b60126013601460405160200180848054600181600116156101000203166002900480156112c35780601f106112a15761010080835404028352918201916112c3565b820191906000526020600020905b8154815290600101906020018083116112af575b50508380546001816001161561010002031660029004801561131c5780601f106112fa57610100808354040283529182019161131c565b820191906000526020600020905b815481529060010190602001808311611308575b5050828054600181600116156101000203166002900480156113755780601f10611353576101008083540402835291820191611375565b820191906000526020600020905b815481529060010190602001808311611361575b50509350505050604051602081830303815290604052601590805190602001906106f2929190611dd8565b600080548190600160a060020a031615806113cd57506000546113cb90600160a060020a03166117b4565b155b156113de576113dc60006117b8565b505b6000809054906101000a9004600160a060020a0316600160a060020a03166338cc48316040518163ffffffff1660e060020a028152600401602060405180830381600087803b15801561143057600080fd5b505af1158015611444573d6000803e3d6000fd5b505050506040513d602081101561145a57600080fd5b5051600154600160a060020a0390811691161461150f576000809054906101000a9004600160a060020a0316600160a060020a03166338cc48316040518163ffffffff1660e060020a028152600401602060405180830381600087803b1580156114c357600080fd5b505af11580156114d7573d6000803e3d6000fd5b505050506040513d60208110156114ed57600080fd5b505160018054600160a060020a031916600160a060020a039092169190911790555b6001546040517f524f3889000000000000000000000000000000000000000000000000000000008152602060048201818152875160248401528751600160a060020a039094169363524f388993899383926044909201919085019080838360005b83811015611588578181015183820152602001611570565b50505050905090810190601f1680156115b55780820380516001836020036101000a031916815260200191505b5092505050602060405180830381600087803b1580156115d457600080fd5b505af11580156115e8573d6000803e3d6000fd5b505050506040513d60208110156115fe57600080fd5b50519050670de0b6b3a764000062030d403a02018111156116225760009150611239565b6001546040517fadf59f99000000000000000000000000000000000000000000000000000000008152600060048201818152606060248401908152885160648501528851600160a060020a039095169463adf59f99948794938b938b939192909160448201916084019060208701908083838b5b838110156116ae578181015183820152602001611696565b50505050905090810190601f1680156116db5780820380516001836020036101000a031916815260200191505b50838103825284518152845160209182019186019080838360005b8381101561170e5781810151838201526020016116f6565b50505050905090810190601f16801561173b5780820380516001836020036101000a031916815260200191505b50955050505050506020604051808303818588803b15801561175c57600080fd5b505af1158015611770573d6000803e3d6000fd5b50505050506040513d602081101561178757600080fd5b5051949350505050565b6000808083116117a057600080fd5b82848115156117ab57fe5b04949350505050565b3b90565b60006110f2611aa1565b6000828180805b83518110156119175783517f30000000000000000000000000000000000000000000000000000000000000009085908390811061180257fe5b90602001015160f860020a900460f860020a02600160f860020a03191610158015611878575083517f39000000000000000000000000000000000000000000000000000000000000009085908390811061185857fe5b90602001015160f860020a900460f860020a02600160f860020a03191611155b156118d15781156118975785151561188f57611917565b600019909501945b600a83029250603084828151811015156118ad57fe5b90602001015160f860020a900460f860020a0260f860020a9004038301925061190f565b83818151811015156118df57fe5b90602001015160f860020a900460f860020a02600160f860020a031916602e60f860020a02141561190f57600191505b6001016117c9565b60008611156119295785600a0a830292505b509095945050505050565b6000600d8190556009819055600a819055600b819055600c819055600e8190555b6007548110156119a15760006010600060078481548110151561197457fe5b6000918252602080832090910154600160a060020a03168352820192909252604001902055600101611955565b60006104dc600782611e56565b606060008082818515156119f75760408051808201909152600181527f300000000000000000000000000000000000000000000000000000000000000060208201529450611a98565b8593505b8315611a1257600190920191600a840493506119fb565b826040519080825280601f01601f191660200182016040528015611a40578160200160208202803883390190505b5091505060001982015b8515611a9457815160001982019160f860020a6030600a8a060102918491908110611a7157fe5b906020010190600160f860020a031916908160001a905350600a86049550611a4a565b8194505b50505050919050565b600080611ac1731d3b2638a7cc9f2cb3d298a3da7a90b67e5506ed6117b4565b1115611b325760008054600160a060020a031916731d3b2638a7cc9f2cb3d298a3da7a90b67e5506ed17905560408051808201909152600b81527f6574685f6d61696e6e65740000000000000000000000000000000000000000006020820152611b2a90611dc9565b506001610a54565b6000611b5173c03a2615d5efaf5f49f60b7bb6583eaec212fdf16117b4565b1115611bba5760008054600160a060020a03191673c03a2615d5efaf5f49f60b7bb6583eaec212fdf117905560408051808201909152600c81527f6574685f726f707374656e3300000000000000000000000000000000000000006020820152611b2a90611dc9565b6000611bd973b7a07bcf2ba2f2703b24c0691b5278999c59ac7e6117b4565b1115611c425760008054600160a060020a03191673b7a07bcf2ba2f2703b24c0691b5278999c59ac7e17905560408051808201909152600981527f6574685f6b6f76616e00000000000000000000000000000000000000000000006020820152611b2a90611dc9565b6000611c6173146500cfd35b22e4a392fe0adc06de1a1368ed486117b4565b1115611cca5760008054600160a060020a03191673146500cfd35b22e4a392fe0adc06de1a1368ed4817905560408051808201909152600b81527f6574685f72696e6b6562790000000000000000000000000000000000000000006020820152611b2a90611dc9565b6000611ce9736f485c8bf6fc43ea212e93bbf8ce046c7f1cb4756117b4565b1115611d1d575060008054600160a060020a031916736f485c8bf6fc43ea212e93bbf8ce046c7f1cb4751790556001610a54565b6000611d3c7320e12a1f859b3feae5fb2a0a32c18f5a65555bbf6117b4565b1115611d70575060008054600160a060020a0319167320e12a1f859b3feae5fb2a0a32c18f5a65555bbf1790556001610a54565b6000611d8f7351efaf4c8b3c9afbd5ab9f4bbc82784ab6ef8faa6117b4565b1115611dc3575060008054600160a060020a0319167351efaf4c8b3c9afbd5ab9f4bbc82784ab6ef8faa1790556001610a54565b50600090565b80516104dc9060029060208401905b828054600181600116156101000203166002900490600052602060002090601f016020900481019282601f10611e1957805160ff1916838001178555611e46565b82800160010185558215611e46579182015b82811115611e46578251825591602001919060010190611e2b565b50611e52929150611e7f565b5090565b815481835581811115611e7a57600083815260209020611e7a918101908301611e7f565b505050565b610a5491905b80821115611e525760008155600101611e8556004e6f74206f776e65720000000000000000000000000000000000000000000000a165627a7a723058203c43dcccf8cbf6c5b69776ed50b83f5ee089d7b912c8aacf72f68facecd6d54700295b55524c5d205b276a736f6e2868747470733a2f2f6170692e72616e646f6d2e6f72672f6a736f6e2d7270632f312f696e766f6b65292e726573756c742e72616e646f6d5b2264617461225d272c20275c6e7b226a736f6e727063223a2022322e30222c20226d6574686f64223a202267656e6572617465496e746567657273222c2022706172616d73223a207b20226170694b6579223a2022247b5b646563727970745d204250446933375578744c77373661656c693653427172395475746e794430724b4746776a45425638676b6d59344655754a316d554a595363592b582f5537642f6f4a497832756948493950626f634b65366634794d7274312b36647a347a52344f6e2f45694c2f5354764d6d424e3453394e476c3370654c3770334a7250753172543077576843794f5959746b754e79684f684c2b5a5461663834657d222c20226e223a20312c20226d696e223a20312c20226d6178223a20",
  "source": "pragma solidity ^0.4.23;\nimport \"./SafeMath.sol\";\nimport \"./oraclize_API.sol\";\n\ncontract Lottery is usingOraclize {\n    /**\n    *   @dev Variables, Mappings & Modifiers\n    */\n    \n    using SafeMath for uint;\n    \n    bytes newProof;\n\n    address public owner;\n    address[] buyerPosition;\n    \n    uint public testValue;\n\n    uint constant gasLimitForOraclize = 175000;\n    uint public softCap;\n    uint public hardCap;\n    uint public ticketPrice;\n    uint public startTime;\n    uint public ticketsPurchased;\n    uint public playerCount;\n    \n    bool public isInitialized = false;\n    \n    mapping (address => uint) ownerTicketCount;\n    mapping (bytes32 => bool) validId;\n    \n    modifier onlyOwner() {\n        require(owner == msg.sender, \"Not owner\");\n        _;\n    }\n    \n    /**\n    *   @dev Events\n    */\n    \n    event lottoInitialized (\n        uint softCap,\n        uint hardCap,\n        uint ticketPrice,\n        uint startTime\n    );\n\n    event ticketPurchased (\n        address buyer,\n        uint amount\n    );\n\n    event logNumberReceived (\n        uint number\n    );\n    \n    event logQuery (\n        string description\n    );\n    \n    event winner (\n        address winner\n    );\n\n    event deposit (\n        address sender,\n        uint amount\n    );\n\n    /**\n    *   @dev Constructor\n    */\n    \n    constructor() public payable {\n        owner = msg.sender;\n        testValue = 1;\n        oraclize_setCustomGasPrice(1000000000 wei);\n        oraclize_setProof(proofType_TLSNotary | proofStorage_IPFS);\n    }\n\n    /**\n    *   @dev Helper/Getter functions\n    */\n\n    function getTicketAmount(address _owner) public view returns (uint) {\n        return (ownerTicketCount[_owner]);\n    }\n\n    function getValues() public view returns (uint, uint, uint) {\n        return (softCap, hardCap, startTime);\n    }\n\n    function contractBalance() public view returns(uint) {\n        return address(this).balance;\n    }\n    \n    /**\n    *   @dev Initialize the lottery with the appropriate values. Only available to contract owner.\n     */\n\n    function initialize(uint256 soft, uint256 hard, uint ticket, uint256 time) public onlyOwner {\n        require(!isInitialized, \"Lottery is already initialized!\");\n        isInitialized = true;\n        \n        softCap = soft;\n        hardCap = hard;\n        ticketPrice = ticket;\n        startTime = now + time;\n\n        emit lottoInitialized(softCap, hardCap, ticketPrice, startTime);\n        \n    }\n    \n    function _resetBalances() private {\n        ticketsPurchased = 0;\n        softCap = 0;\n        hardCap = 0;\n        ticketPrice = 0;\n        startTime = 0;\n        playerCount = 0;\n        \n        for (uint i = 0; i < buyerPosition.length; i++) {\n            ownerTicketCount[buyerPosition[i]] = 0; \n        }\n        \n        buyerPosition.length = 0;\n        \n        \n    }\n\n    /**\n    *   @dev Give a free first ticket to anyone who has been verified. verification is done off-chain and the owner calls the function. (OnlyOwner)\n     */\n    \n    function freeTicket(address buyer) public onlyOwner {\n        require(isInitialized, \"Lottery is not initialized.\");\n        require(ownerTicketCount[buyer] == 0, \"Buyer already has tickets.\");\n\n        playerCount = playerCount.add(1);\n\n        ownerTicketCount[buyer] = ownerTicketCount[buyer].add(1);\n        ticketsPurchased = ticketsPurchased.add(1);\n\n        buyerPosition.push(buyer);\n\n        emit ticketPurchased(buyer, 1);\n    }\n\n    /**\n    *   @dev Buy an amount of tickets based on the amount of ether sent and the ticket price. Available to      all lottery participants.\n     */\n\n    function buyTicket() public payable {\n        require(isInitialized, \"Lottery is not initialized.\");\n        require(msg.value > 0, \"No ether sent.\");\n        \n        uint value = msg.value.div(ticketPrice);\n        ownerTicketCount[msg.sender] = ownerTicketCount[msg.sender].add(value);\n        ticketsPurchased = ticketsPurchased.add(value);\n\n        playerCount = playerCount.add(1);\n\n        //instead of having ticket IDs, this design tracks the order in which addresses participate.\n        buyerPosition.push(msg.sender);\n\n        emit ticketPurchased(msg.sender, value);\n    }\n    \n    /**\n     * @dev Oraclize callback function\n    */\n    \n    function __callback(bytes32 qId, string result, bytes proof) public {\n        require(msg.sender == oraclize_cbAddress(), \"Wrong address\");\n        require(validId[qId], \"Invalid ID\");\n        \n        newProof = proof;\n        \n        uint randomNumber = parseInt(result);\n        \n        emit logNumberReceived(randomNumber);\n        \n        validId[qId] = false;\n        \n        emit winner(getWinner(randomNumber));\n        \n    }\n    \n    /**\n     * @dev Oraclize query to random.org. Fetches one random number between 0 and the\n     * total amount of tickets purchased. Returns the value in the callback above and calls the winner. \n    */\n    \n    function drawWinner() public onlyOwner {\n        require(isInitialized, \"Lottery is not initialized\");\n        isInitialized = false;  \n        \n        _setQuery2();   \n        _setQuery123();\n        \n        bytes32 qId = oraclize_query(\"nested\", query123);\n        \n        validId[qId] = true;\n\n        emit logQuery(\"Oraclize query was sent. Standing by for response.\");\n    }\n    \n    /**\n     * @dev Get the lottery winner and return their address.\n    */\n    \n    function getWinner(uint randomNumber) private returns (address) {\n\n        uint[] memory ownerTicketAmount = new uint[](buyerPosition.length);\n        \n        for (uint i = 0; i<buyerPosition.length; i++) {\n            ownerTicketAmount[i] = ownerTicketCount[buyerPosition[i]];\n        }\n        \n        uint ticketSum = 0;\n        address winnerAddr;\n\n        for (uint p = 0; p<ownerTicketAmount.length; p++) {\n            ticketSum = ticketSum.add(ownerTicketAmount[p]);\n            if (ticketSum >= randomNumber) {\n                winnerAddr = buyerPosition[p];\n                break;\n            }\n        }\n\n        _resetBalances();\n        return winnerAddr;\n    }\n    \n    /**\n     * @dev Each part of the Oraclize query to be concatenated.\n    */\n    \n    string query1 = \"[URL] ['json(https://api.random.org/json-rpc/1/invoke).result.random[\\\"data\\\"]', '\\\\n{\\\"jsonrpc\\\": \\\"2.0\\\", \\\"method\\\": \\\"generateIntegers\\\", \\\"params\\\": { \\\"apiKey\\\": \\\"${[decrypt] BPDi37UxtLw76aeli6SBqr9TutnyD0rKGFwjEBV8gkmY4FUuJ1mUJYScY+X/U7d/oJIx2uiHI9PbocKe6f4yMrt1+6dz4zR4On/EiL/STvMmBN4S9NGl3peL7p3JrPu1rT0wWhCyOYYtkuNyhOhL+ZTaf84e}\\\", \\\"n\\\": 1, \\\"min\\\": 1, \\\"max\\\": \";\n    string query2;\n    string query3 = \", \\\"replacement\\\": false${[identity] \\\"}\\\"}, \\\"id\\\": 1${[identity] \\\"}\\\"}']\";\n    \n    string query123;\n    \n    /**\n     * @dev Setters and getters for queries.\n    */\n    \n    function _setQuery2() private {\n        query2 = uint2str(ticketsPurchased);\n    }\n    \n    function _setQuery123() private {\n        query123 = string(abi.encodePacked(query1, query2, query3));\n    }\n    \n    function getQuery() public view returns(string) {\n        return query123;\n    }\n    /**\n     * @dev Withdraw function. Only owner can withdraw contract funds.\n    */\n    \n    function withdraw() public onlyOwner {\n        msg.sender.transfer(address(this).balance);\n    }\n    \n    /**\n     * @dev Fallback function. Refunds ether to sender unless they are the owner.\n    */\n    \n    function() public payable {\n        if (msg.sender != owner) {\n            revert();\n        } else {\n            emit deposit(msg.sender, msg.value);\n        }\n    }\n\n\n\n}",
  "sourcePath": "/Users/CryptoWork/Desktop/Russel_Lottery/contracts/Lottery.sol",
  "compiler": {
    "name": "solc",
    "version": "0.4.24+commit.e67f0147.Emscripten.clang"
  },
  "schemaVersion": "2.0.1",
  "updatedAt": "2018-12-27T03:32:17.400Z"
}