{
  "contractName": "Lottery",
  "abi": [
    {
      "constant": true,
      "inputs": [],
      "name": "ticketPrice",
      "outputs": [
        {
          "name": "",
          "type": "uint256"
        }
      ],
      "payable": false,
      "stateMutability": "view",
      "type": "function"
    },
    {
      "constant": true,
      "inputs": [],
      "name": "isInitialized",
      "outputs": [
        {
          "name": "",
          "type": "bool"
        }
      ],
      "payable": false,
      "stateMutability": "view",
      "type": "function"
    },
    {
      "constant": true,
      "inputs": [],
      "name": "villaPrice",
      "outputs": [
        {
          "name": "",
          "type": "uint256"
        }
      ],
      "payable": false,
      "stateMutability": "view",
      "type": "function"
    },
    {
      "constant": true,
      "inputs": [],
      "name": "startTime",
      "outputs": [
        {
          "name": "",
          "type": "uint256"
        }
      ],
      "payable": false,
      "stateMutability": "view",
      "type": "function"
    },
    {
      "constant": true,
      "inputs": [],
      "name": "owner",
      "outputs": [
        {
          "name": "",
          "type": "address"
        }
      ],
      "payable": false,
      "stateMutability": "view",
      "type": "function"
    },
    {
      "constant": true,
      "inputs": [],
      "name": "softCap",
      "outputs": [
        {
          "name": "",
          "type": "uint256"
        }
      ],
      "payable": false,
      "stateMutability": "view",
      "type": "function"
    },
    {
      "constant": true,
      "inputs": [],
      "name": "ticketsPurchased",
      "outputs": [
        {
          "name": "",
          "type": "uint256"
        }
      ],
      "payable": false,
      "stateMutability": "view",
      "type": "function"
    },
    {
      "constant": true,
      "inputs": [],
      "name": "hardCap",
      "outputs": [
        {
          "name": "",
          "type": "uint256"
        }
      ],
      "payable": false,
      "stateMutability": "view",
      "type": "function"
    },
    {
      "inputs": [],
      "payable": true,
      "stateMutability": "payable",
      "type": "constructor"
    },
    {
      "payable": true,
      "stateMutability": "payable",
      "type": "fallback"
    },
    {
      "anonymous": false,
      "inputs": [
        {
          "indexed": false,
          "name": "softCap",
          "type": "uint256"
        },
        {
          "indexed": false,
          "name": "hardCap",
          "type": "uint256"
        },
        {
          "indexed": false,
          "name": "villaPrice",
          "type": "uint256"
        },
        {
          "indexed": false,
          "name": "ticketPrice",
          "type": "uint256"
        },
        {
          "indexed": false,
          "name": "startTime",
          "type": "uint256"
        }
      ],
      "name": "lottoInitialized",
      "type": "event"
    },
    {
      "anonymous": false,
      "inputs": [
        {
          "indexed": false,
          "name": "buyer",
          "type": "address"
        },
        {
          "indexed": false,
          "name": "amount",
          "type": "uint256"
        }
      ],
      "name": "ticketPurchased",
      "type": "event"
    },
    {
      "anonymous": false,
      "inputs": [
        {
          "indexed": false,
          "name": "number",
          "type": "uint256"
        }
      ],
      "name": "logNumberReceived",
      "type": "event"
    },
    {
      "anonymous": false,
      "inputs": [
        {
          "indexed": false,
          "name": "description",
          "type": "string"
        }
      ],
      "name": "logQuery",
      "type": "event"
    },
    {
      "anonymous": false,
      "inputs": [
        {
          "indexed": false,
          "name": "winner",
          "type": "address"
        }
      ],
      "name": "winner",
      "type": "event"
    },
    {
      "constant": true,
      "inputs": [
        {
          "name": "_owner",
          "type": "address"
        }
      ],
      "name": "getTicketAmount",
      "outputs": [
        {
          "name": "",
          "type": "uint256"
        }
      ],
      "payable": false,
      "stateMutability": "view",
      "type": "function"
    },
    {
      "constant": true,
      "inputs": [],
      "name": "getbuyerPositions",
      "outputs": [
        {
          "name": "",
          "type": "address[]"
        }
      ],
      "payable": false,
      "stateMutability": "view",
      "type": "function"
    },
    {
      "constant": false,
      "inputs": [
        {
          "name": "soft",
          "type": "uint256"
        },
        {
          "name": "hard",
          "type": "uint256"
        },
        {
          "name": "villa",
          "type": "uint256"
        },
        {
          "name": "ticket",
          "type": "uint256"
        },
        {
          "name": "time",
          "type": "uint256"
        }
      ],
      "name": "initialize",
      "outputs": [],
      "payable": false,
      "stateMutability": "nonpayable",
      "type": "function"
    },
    {
      "constant": false,
      "inputs": [
        {
          "name": "buyer",
          "type": "address"
        }
      ],
      "name": "freeTicket",
      "outputs": [],
      "payable": false,
      "stateMutability": "nonpayable",
      "type": "function"
    },
    {
      "constant": false,
      "inputs": [],
      "name": "buyTicket",
      "outputs": [],
      "payable": true,
      "stateMutability": "payable",
      "type": "function"
    },
    {
      "constant": false,
      "inputs": [
        {
          "name": "myid",
          "type": "bytes32"
        },
        {
          "name": "result",
          "type": "string"
        }
      ],
      "name": "__callback",
      "outputs": [],
      "payable": false,
      "stateMutability": "nonpayable",
      "type": "function"
    },
    {
      "constant": false,
      "inputs": [
        {
          "name": "qId",
          "type": "bytes32"
        },
        {
          "name": "result",
          "type": "string"
        },
        {
          "name": "proof",
          "type": "bytes"
        }
      ],
      "name": "__callback",
      "outputs": [],
      "payable": false,
      "stateMutability": "nonpayable",
      "type": "function"
    },
    {
      "constant": false,
      "inputs": [],
      "name": "drawWinner",
      "outputs": [],
      "payable": false,
      "stateMutability": "nonpayable",
      "type": "function"
    },
    {
      "constant": true,
      "inputs": [],
      "name": "getQuery",
      "outputs": [
        {
          "name": "",
          "type": "string"
        }
      ],
      "payable": false,
      "stateMutability": "view",
      "type": "function"
    },
    {
      "constant": false,
      "inputs": [],
      "name": "withdraw",
      "outputs": [],
      "payable": false,
      "stateMutability": "nonpayable",
      "type": "function"
    }
  ],
  "bytecode": "0x60806040526000600e60006101000a81548160ff0219169083151502179055506101806040519081016040528061015f815260200162003df461015f9139601190805190602001906200005492919062000e7c565b50608060405190810160405280604381526020017f2c20227265706c6163656d656e74223a2066616c7365247b5b6964656e74697481526020017f795d20227d227d2c20226964223a2031247b5b6964656e746974795d20227d2281526020017f7d275d000000000000000000000000000000000000000000000000000000000081525060139080519060200190620000ef92919062000e7c565b5033600660006101000a81548173ffffffffffffffffffffffffffffffffffffffff021916908373ffffffffffffffffffffffffffffffffffffffff1602179055506200014f633b9aca00620001b7640100000000026401000000009004565b620001b160017f01000000000000000000000000000000000000000000000000000000000000000260107f0100000000000000000000000000000000000000000000000000000000000000021762000527640100000000026401000000009004565b62000f2b565b60008060009054906101000a900473ffffffffffffffffffffffffffffffffffffffff1673ffffffffffffffffffffffffffffffffffffffff1614806200023857506000620002366000809054906101000a900473ffffffffffffffffffffffffffffffffffffffff16620008db640100000000026401000000009004565b145b156200025b57620002596000620008e6640100000000026401000000009004565b505b6000809054906101000a900473ffffffffffffffffffffffffffffffffffffffff1673ffffffffffffffffffffffffffffffffffffffff166338cc48316040518163ffffffff167c0100000000000000000000000000000000000000000000000000000000028152600401602060405180830381600087803b158015620002e157600080fd5b505af1158015620002f6573d6000803e3d6000fd5b505050506040513d60208110156200030d57600080fd5b810190808051906020019092919050505073ffffffffffffffffffffffffffffffffffffffff16600160009054906101000a900473ffffffffffffffffffffffffffffffffffffffff1673ffffffffffffffffffffffffffffffffffffffff1614151562000479576000809054906101000a900473ffffffffffffffffffffffffffffffffffffffff1673ffffffffffffffffffffffffffffffffffffffff166338cc48316040518163ffffffff167c0100000000000000000000000000000000000000000000000000000000028152600401602060405180830381600087803b158015620003fb57600080fd5b505af115801562000410573d6000803e3d6000fd5b505050506040513d60208110156200042757600080fd5b8101908080519060200190929190505050600160006101000a81548173ffffffffffffffffffffffffffffffffffffffff021916908373ffffffffffffffffffffffffffffffffffffffff1602179055505b600160009054906101000a900473ffffffffffffffffffffffffffffffffffffffff1673ffffffffffffffffffffffffffffffffffffffff1663ca6ad1e4826040518263ffffffff167c010000000000000000000000000000000000000000000000000000000002815260040180828152602001915050600060405180830381600087803b1580156200050b57600080fd5b505af115801562000520573d6000803e3d6000fd5b5050505050565b60008060009054906101000a900473ffffffffffffffffffffffffffffffffffffffff1673ffffffffffffffffffffffffffffffffffffffff161480620005a857506000620005a66000809054906101000a900473ffffffffffffffffffffffffffffffffffffffff16620008db640100000000026401000000009004565b145b15620005cb57620005c96000620008e6640100000000026401000000009004565b505b6000809054906101000a900473ffffffffffffffffffffffffffffffffffffffff1673ffffffffffffffffffffffffffffffffffffffff166338cc48316040518163ffffffff167c0100000000000000000000000000000000000000000000000000000000028152600401602060405180830381600087803b1580156200065157600080fd5b505af115801562000666573d6000803e3d6000fd5b505050506040513d60208110156200067d57600080fd5b810190808051906020019092919050505073ffffffffffffffffffffffffffffffffffffffff16600160009054906101000a900473ffffffffffffffffffffffffffffffffffffffff1673ffffffffffffffffffffffffffffffffffffffff16141515620007e9576000809054906101000a900473ffffffffffffffffffffffffffffffffffffffff1673ffffffffffffffffffffffffffffffffffffffff166338cc48316040518163ffffffff167c0100000000000000000000000000000000000000000000000000000000028152600401602060405180830381600087803b1580156200076b57600080fd5b505af115801562000780573d6000803e3d6000fd5b505050506040513d60208110156200079757600080fd5b8101908080519060200190929190505050600160006101000a81548173ffffffffffffffffffffffffffffffffffffffff021916908373ffffffffffffffffffffffffffffffffffffffff1602179055505b600160009054906101000a900473ffffffffffffffffffffffffffffffffffffffff1673ffffffffffffffffffffffffffffffffffffffff1663688dcfd7826040518263ffffffff167c010000000000000000000000000000000000000000000000000000000002815260040180827effffffffffffffffffffffffffffffffffffffffffffffffffffffffffffff19167effffffffffffffffffffffffffffffffffffffffffffffffffffffffffffff19168152602001915050600060405180830381600087803b158015620008bf57600080fd5b505af1158015620008d4573d6000803e3d6000fd5b5050505050565b6000813b9050919050565b60006200090162000908640100000000026401000000009004565b9050919050565b60008062000939731d3b2638a7cc9f2cb3d298a3da7a90b67e5506ed620008db640100000000026401000000009004565b1115620009ed57731d3b2638a7cc9f2cb3d298a3da7a90b67e5506ed6000806101000a81548173ffffffffffffffffffffffffffffffffffffffff021916908373ffffffffffffffffffffffffffffffffffffffff160217905550620009e36040805190810160405280600b81526020017f6574685f6d61696e6e657400000000000000000000000000000000000000000081525062000e60640100000000026401000000009004565b6001905062000e5d565b600062000a1d73c03a2615d5efaf5f49f60b7bb6583eaec212fdf1620008db640100000000026401000000009004565b111562000ad15773c03a2615d5efaf5f49f60b7bb6583eaec212fdf16000806101000a81548173ffffffffffffffffffffffffffffffffffffffff021916908373ffffffffffffffffffffffffffffffffffffffff16021790555062000ac76040805190810160405280600c81526020017f6574685f726f707374656e33000000000000000000000000000000000000000081525062000e60640100000000026401000000009004565b6001905062000e5d565b600062000b0173b7a07bcf2ba2f2703b24c0691b5278999c59ac7e620008db640100000000026401000000009004565b111562000bb55773b7a07bcf2ba2f2703b24c0691b5278999c59ac7e6000806101000a81548173ffffffffffffffffffffffffffffffffffffffff021916908373ffffffffffffffffffffffffffffffffffffffff16021790555062000bab6040805190810160405280600981526020017f6574685f6b6f76616e000000000000000000000000000000000000000000000081525062000e60640100000000026401000000009004565b6001905062000e5d565b600062000be573146500cfd35b22e4a392fe0adc06de1a1368ed48620008db640100000000026401000000009004565b111562000c995773146500cfd35b22e4a392fe0adc06de1a1368ed486000806101000a81548173ffffffffffffffffffffffffffffffffffffffff021916908373ffffffffffffffffffffffffffffffffffffffff16021790555062000c8f6040805190810160405280600b81526020017f6574685f72696e6b65627900000000000000000000000000000000000000000081525062000e60640100000000026401000000009004565b6001905062000e5d565b600062000cc9736f485c8bf6fc43ea212e93bbf8ce046c7f1cb475620008db640100000000026401000000009004565b111562000d2e57736f485c8bf6fc43ea212e93bbf8ce046c7f1cb4756000806101000a81548173ffffffffffffffffffffffffffffffffffffffff021916908373ffffffffffffffffffffffffffffffffffffffff1602179055506001905062000e5d565b600062000d5e7320e12a1f859b3feae5fb2a0a32c18f5a65555bbf620008db640100000000026401000000009004565b111562000dc3577320e12a1f859b3feae5fb2a0a32c18f5a65555bbf6000806101000a81548173ffffffffffffffffffffffffffffffffffffffff021916908373ffffffffffffffffffffffffffffffffffffffff1602179055506001905062000e5d565b600062000df37351efaf4c8b3c9afbd5ab9f4bbc82784ab6ef8faa620008db640100000000026401000000009004565b111562000e58577351efaf4c8b3c9afbd5ab9f4bbc82784ab6ef8faa6000806101000a81548173ffffffffffffffffffffffffffffffffffffffff021916908373ffffffffffffffffffffffffffffffffffffffff1602179055506001905062000e5d565b600090505b90565b806002908051906020019062000e7892919062000e7c565b5050565b828054600181600116156101000203166002900490600052602060002090601f016020900481019282601f1062000ebf57805160ff191683800117855562000ef0565b8280016001018555821562000ef0579182015b8281111562000eef57825182559160200191906001019062000ed2565b5b50905062000eff919062000f03565b5090565b62000f2891905b8082111562000f2457600081600090555060010162000f0a565b5090565b90565b612eb98062000f3b6000396000f3006080604052600436106100fc576000357c0100000000000000000000000000000000000000000000000000000000900463ffffffff1680631209b1f61461015a57806327dc297e1461018557806338bbfa50146101fc578063392e53cd146102b95780633ccfd60b146102e85780633d0bd180146102ff57806371d0bab41461034257806378bd29171461036d57806378e97925146103c45780638da5cb5b146103ef578063906a26e01461044657806390a7ba5b146104715780639c742f931461049c578063b2185bb11461052c578063d116df8014610543578063dcbab608146105af578063edca914c14610604578063fb86a4041461060e575b600660009054906101000a900473ffffffffffffffffffffffffffffffffffffffff1673ffffffffffffffffffffffffffffffffffffffff163373ffffffffffffffffffffffffffffffffffffffff1614151561015857600080fd5b005b34801561016657600080fd5b5061016f610639565b6040518082815260200191505060405180910390f35b34801561019157600080fd5b506101fa6004803603810190808035600019169060200190929190803590602001908201803590602001908080601f016020809104026020016040519081016040528093929190818152602001838380828437820191505050505050919291929050505061063f565b005b34801561020857600080fd5b506102b76004803603810190808035600019169060200190929190803590602001908201803590602001908080601f0160208091040260200160405190810160405280939291908181526020018383808284378201915050505050509192919290803590602001908201803590602001908080601f0160208091040260200160405190810160405280939291908181526020018383808284378201915050505050509192919290505050610682565b005b3480156102c557600080fd5b506102ce6108c9565b604051808215151515815260200191505060405180910390f35b3480156102f457600080fd5b506102fd6108dc565b005b34801561030b57600080fd5b50610340600480360381019080803573ffffffffffffffffffffffffffffffffffffffff169060200190929190505050610a01565b005b34801561034e57600080fd5b50610357610d88565b6040518082815260200191505060405180910390f35b34801561037957600080fd5b506103ae600480360381019080803573ffffffffffffffffffffffffffffffffffffffff169060200190929190505050610d8e565b6040518082815260200191505060405180910390f35b3480156103d057600080fd5b506103d9610dd7565b6040518082815260200191505060405180910390f35b3480156103fb57600080fd5b50610404610ddd565b604051808273ffffffffffffffffffffffffffffffffffffffff1673ffffffffffffffffffffffffffffffffffffffff16815260200191505060405180910390f35b34801561045257600080fd5b5061045b610e03565b6040518082815260200191505060405180910390f35b34801561047d57600080fd5b50610486610e09565b6040518082815260200191505060405180910390f35b3480156104a857600080fd5b506104b1610e0f565b6040518080602001828103825283818151815260200191508051906020019080838360005b838110156104f15780820151818401526020810190506104d6565b50505050905090810190601f16801561051e5780820380516001836020036101000a031916815260200191505b509250505060405180910390f35b34801561053857600080fd5b50610541610eb1565b005b34801561054f57600080fd5b506105586111c7565b6040518080602001828103825283818151815260200191508051906020019060200280838360005b8381101561059b578082015181840152602081019050610580565b505050509050019250505060405180910390f35b3480156105bb57600080fd5b506106026004803603810190808035906020019092919080359060200190929190803590602001909291908035906020019092919080359060200190929190505050611255565b005b61060c611447565b005b34801561061a57600080fd5b506106236116e0565b6040518082815260200191505060405180910390f35b600b5481565b61067e828260006040519080825280601f01601f1916602001820160405280156106785781602001602082028038833980820191505090505b50610682565b5050565b600061068c6116e6565b73ffffffffffffffffffffffffffffffffffffffff163373ffffffffffffffffffffffffffffffffffffffff1614151561072e576040517f08c379a000000000000000000000000000000000000000000000000000000000815260040180806020018281038252600d8152602001807f57726f6e6720616464726573730000000000000000000000000000000000000081525060200191505060405180910390fd5b60106000856000191660001916815260200190815260200160002060009054906101000a900460ff1615156107cb576040517f08c379a000000000000000000000000000000000000000000000000000000000815260040180806020018281038252600a8152602001807f496e76616c69642049440000000000000000000000000000000000000000000081525060200191505060405180910390fd5b81600590805190602001906107e1929190612d3c565b506107eb83611a44565b90507f4300e48b36cdb4a1d5578d2ba489ffe9e709e371f53a7d2923a9f7cecf11c5fc816040518082815260200191505060405180910390a1600060106000866000191660001916815260200190815260200160002060006101000a81548160ff0219169083151502179055507f2ad95786da06c547c63d0a70ed6f06fcc5af1374aaa87963d5ba8ed02a2aa7d761088282611a58565b604051808273ffffffffffffffffffffffffffffffffffffffff1673ffffffffffffffffffffffffffffffffffffffff16815260200191505060405180910390a150505050565b600e60009054906101000a900460ff1681565b3373ffffffffffffffffffffffffffffffffffffffff16600660009054906101000a900473ffffffffffffffffffffffffffffffffffffffff1673ffffffffffffffffffffffffffffffffffffffff161415156109a1576040517f08c379a00000000000000000000000000000000000000000000000000000000081526004018080602001828103825260098152602001807f4e6f74206f776e6572000000000000000000000000000000000000000000000081525060200191505060405180910390fd5b3373ffffffffffffffffffffffffffffffffffffffff166108fc3073ffffffffffffffffffffffffffffffffffffffff16319081150290604051600060405180830381858888f193505050501580156109fe573d6000803e3d6000fd5b50565b3373ffffffffffffffffffffffffffffffffffffffff16600660009054906101000a900473ffffffffffffffffffffffffffffffffffffffff1673ffffffffffffffffffffffffffffffffffffffff16141515610ac6576040517f08c379a00000000000000000000000000000000000000000000000000000000081526004018080602001828103825260098152602001807f4e6f74206f776e6572000000000000000000000000000000000000000000000081525060200191505060405180910390fd5b600e60009054906101000a900460ff161515610b4a576040517f08c379a000000000000000000000000000000000000000000000000000000000815260040180806020018281038252601b8152602001807f4c6f7474657279206973206e6f7420696e697469616c697a65642e000000000081525060200191505060405180910390fd5b6000600f60008373ffffffffffffffffffffffffffffffffffffffff1673ffffffffffffffffffffffffffffffffffffffff16815260200190815260200160002054141515610c01576040517f08c379a000000000000000000000000000000000000000000000000000000000815260040180806020018281038252601a8152602001807f427579657220616c726561647920686173207469636b6574732e00000000000081525060200191505060405180910390fd5b610c546001600f60008473ffffffffffffffffffffffffffffffffffffffff1673ffffffffffffffffffffffffffffffffffffffff16815260200190815260200160002054611bf790919063ffffffff16565b600f60008373ffffffffffffffffffffffffffffffffffffffff1673ffffffffffffffffffffffffffffffffffffffff16815260200190815260200160002081905550610cad6001600d54611bf790919063ffffffff16565b600d8190555060078190806001815401808255809150509060018203906000526020600020016000909192909190916101000a81548173ffffffffffffffffffffffffffffffffffffffff021916908373ffffffffffffffffffffffffffffffffffffffff160217905550507f80f8cde1dbefb5cb9fab659a41081b98fa88b0e4879ec7f6c870d8c8129e27e0816001604051808373ffffffffffffffffffffffffffffffffffffffff1673ffffffffffffffffffffffffffffffffffffffff1681526020018281526020019250505060405180910390a150565b600a5481565b6000600f60008373ffffffffffffffffffffffffffffffffffffffff1673ffffffffffffffffffffffffffffffffffffffff168152602001908152602001600020549050919050565b600c5481565b600660009054906101000a900473ffffffffffffffffffffffffffffffffffffffff1681565b60085481565b600d5481565b606060148054600181600116156101000203166002900480601f016020809104026020016040519081016040528092919081815260200182805460018160011615610100020316600290048015610ea75780601f10610e7c57610100808354040283529160200191610ea7565b820191906000526020600020905b815481529060010190602001808311610e8a57829003601f168201915b5050505050905090565b60003373ffffffffffffffffffffffffffffffffffffffff16600660009054906101000a900473ffffffffffffffffffffffffffffffffffffffff1673ffffffffffffffffffffffffffffffffffffffff16141515610f78576040517f08c379a00000000000000000000000000000000000000000000000000000000081526004018080602001828103825260098152602001807f4e6f74206f776e6572000000000000000000000000000000000000000000000081525060200191505060405180910390fd5b600e60009054906101000a900460ff161515610ffc576040517f08c379a000000000000000000000000000000000000000000000000000000000815260040180806020018281038252601a8152602001807f4c6f7474657279206973206e6f7420696e697469616c697a656400000000000081525060200191505060405180910390fd5b6000600e60006101000a81548160ff02191690831515021790555061101f611c18565b611027611c3b565b6111006040805190810160405280600681526020017f6e6573746564000000000000000000000000000000000000000000000000000081525060148054600181600116156101000203166002900480601f0160208091040260200160405190810160405280929190818152602001828054600181600116156101000203166002900480156110f65780601f106110cb576101008083540402835291602001916110f6565b820191906000526020600020905b8154815290600101906020018083116110d957829003601f168201915b5050505050611d7f565b9050600160106000836000191660001916815260200190815260200160002060006101000a81548160ff0219169083151502179055507f18d7185daabaec12aeca0c54a5d3a37eda3c6bb0b360ef3688245118e7a45dfd6040518080602001828103825260328152602001807f4f7261636c697a65207175657279207761732073656e742e205374616e64696e81526020017f6720627920666f7220726573706f6e73652e000000000000000000000000000081525060400191505060405180910390a150565b6060600780548060200260200160405190810160405280929190818152602001828054801561124b57602002820191906000526020600020905b8160009054906101000a900473ffffffffffffffffffffffffffffffffffffffff1673ffffffffffffffffffffffffffffffffffffffff1681526020019060010190808311611201575b5050505050905090565b3373ffffffffffffffffffffffffffffffffffffffff16600660009054906101000a900473ffffffffffffffffffffffffffffffffffffffff1673ffffffffffffffffffffffffffffffffffffffff1614151561131a576040517f08c379a00000000000000000000000000000000000000000000000000000000081526004018080602001828103825260098152602001807f4e6f74206f776e6572000000000000000000000000000000000000000000000081525060200191505060405180910390fd5b600e60009054906101000a900460ff1615151561139f576040517f08c379a000000000000000000000000000000000000000000000000000000000815260040180806020018281038252601f8152602001807f4c6f747465727920697320616c726561647920696e697469616c697a6564210081525060200191505060405180910390fd5b6001600e60006101000a81548160ff021916908315150217905550846008819055508360098190555082600a8190555081600b81905550804201600c819055507f7835784bf717bb333bfdc4e8ff60b9837afa3b8d61bb6df5a8539dcddedfa21e600854600954600a54600b54600c54604051808681526020018581526020018481526020018381526020018281526020019550505050505060405180910390a15050505050565b6000600e60009054906101000a900460ff1615156114cd576040517f08c379a000000000000000000000000000000000000000000000000000000000815260040180806020018281038252601b8152602001807f4c6f7474657279206973206e6f7420696e697469616c697a65642e000000000081525060200191505060405180910390fd5b600034111515611545576040517f08c379a000000000000000000000000000000000000000000000000000000000815260040180806020018281038252600e8152602001807f4e6f2065746865722073656e742e00000000000000000000000000000000000081525060200191505060405180910390fd5b61155a600b543461232190919063ffffffff16565b90506115ae81600f60003373ffffffffffffffffffffffffffffffffffffffff1673ffffffffffffffffffffffffffffffffffffffff16815260200190815260200160002054611bf790919063ffffffff16565b600f60003373ffffffffffffffffffffffffffffffffffffffff1673ffffffffffffffffffffffffffffffffffffffff1681526020019081526020016000208190555061160681600d54611bf790919063ffffffff16565b600d8190555060073390806001815401808255809150509060018203906000526020600020016000909192909190916101000a81548173ffffffffffffffffffffffffffffffffffffffff021916908373ffffffffffffffffffffffffffffffffffffffff160217905550507f80f8cde1dbefb5cb9fab659a41081b98fa88b0e4879ec7f6c870d8c8129e27e03382604051808373ffffffffffffffffffffffffffffffffffffffff1673ffffffffffffffffffffffffffffffffffffffff1681526020018281526020019250505060405180910390a150565b60095481565b6000806000809054906101000a900473ffffffffffffffffffffffffffffffffffffffff1673ffffffffffffffffffffffffffffffffffffffff161480611756575060006117546000809054906101000a900473ffffffffffffffffffffffffffffffffffffffff1661234b565b145b15611767576117656000612356565b505b6000809054906101000a900473ffffffffffffffffffffffffffffffffffffffff1673ffffffffffffffffffffffffffffffffffffffff166338cc48316040518163ffffffff167c0100000000000000000000000000000000000000000000000000000000028152600401602060405180830381600087803b1580156117ec57600080fd5b505af1158015611800573d6000803e3d6000fd5b505050506040513d602081101561181657600080fd5b810190808051906020019092919050505073ffffffffffffffffffffffffffffffffffffffff16600160009054906101000a900473ffffffffffffffffffffffffffffffffffffffff1673ffffffffffffffffffffffffffffffffffffffff1614151561197e576000809054906101000a900473ffffffffffffffffffffffffffffffffffffffff1673ffffffffffffffffffffffffffffffffffffffff166338cc48316040518163ffffffff167c0100000000000000000000000000000000000000000000000000000000028152600401602060405180830381600087803b15801561190257600080fd5b505af1158015611916573d6000803e3d6000fd5b505050506040513d602081101561192c57600080fd5b8101908080519060200190929190505050600160006101000a81548173ffffffffffffffffffffffffffffffffffffffff021916908373ffffffffffffffffffffffffffffffffffffffff1602179055505b600160009054906101000a900473ffffffffffffffffffffffffffffffffffffffff1673ffffffffffffffffffffffffffffffffffffffff1663c281d19e6040518163ffffffff167c0100000000000000000000000000000000000000000000000000000000028152600401602060405180830381600087803b158015611a0457600080fd5b505af1158015611a18573d6000803e3d6000fd5b505050506040513d6020811015611a2e57600080fd5b8101908080519060200190929190505050905090565b6000611a51826000612367565b9050919050565b60006060600080600080600780549050604051908082528060200260200182016040528015611a965781602001602082028038833980820191505090505b509450600093505b600780549050841015611b4d57600f6000600786815481101515611abe57fe5b9060005260206000200160009054906101000a900473ffffffffffffffffffffffffffffffffffffffff1673ffffffffffffffffffffffffffffffffffffffff1673ffffffffffffffffffffffffffffffffffffffff168152602001908152602001600020548585815181101515611b3257fe5b90602001906020020181815250508380600101945050611a9e565b60009250600090505b8451811015611be257611b898582815181101515611b7057fe5b9060200190602002015184611bf790919063ffffffff16565b92508683101515611bd557600781815481101515611ba357fe5b9060005260206000200160009054906101000a900473ffffffffffffffffffffffffffffffffffffffff169150611be2565b8080600101915050611b56565b611bea61265b565b8195505050505050919050565b6000808284019050838110151515611c0e57600080fd5b8091505092915050565b611c23600d5461273c565b60129080519060200190611c38929190612dbc565b50565b6011601260136040516020018084805460018160011615610100020316600290048015611c9f5780601f10611c7d576101008083540402835291820191611c9f565b820191906000526020600020905b815481529060010190602001808311611c8b575b505083805460018160011615610100020316600290048015611cf85780601f10611cd6576101008083540402835291820191611cf8565b820191906000526020600020905b815481529060010190602001808311611ce4575b505082805460018160011615610100020316600290048015611d515780601f10611d2f576101008083540402835291820191611d51565b820191906000526020600020905b815481529060010190602001808311611d3d575b5050935050505060405160208183030381529060405260149080519060200190611d7c929190612dbc565b50565b60008060008060009054906101000a900473ffffffffffffffffffffffffffffffffffffffff1673ffffffffffffffffffffffffffffffffffffffff161480611df157506000611def6000809054906101000a900473ffffffffffffffffffffffffffffffffffffffff1661234b565b145b15611e0257611e006000612356565b505b6000809054906101000a900473ffffffffffffffffffffffffffffffffffffffff1673ffffffffffffffffffffffffffffffffffffffff166338cc48316040518163ffffffff167c0100000000000000000000000000000000000000000000000000000000028152600401602060405180830381600087803b158015611e8757600080fd5b505af1158015611e9b573d6000803e3d6000fd5b505050506040513d6020811015611eb157600080fd5b810190808051906020019092919050505073ffffffffffffffffffffffffffffffffffffffff16600160009054906101000a900473ffffffffffffffffffffffffffffffffffffffff1673ffffffffffffffffffffffffffffffffffffffff16141515612019576000809054906101000a900473ffffffffffffffffffffffffffffffffffffffff1673ffffffffffffffffffffffffffffffffffffffff166338cc48316040518163ffffffff167c0100000000000000000000000000000000000000000000000000000000028152600401602060405180830381600087803b158015611f9d57600080fd5b505af1158015611fb1573d6000803e3d6000fd5b505050506040513d6020811015611fc757600080fd5b8101908080519060200190929190505050600160006101000a81548173ffffffffffffffffffffffffffffffffffffffff021916908373ffffffffffffffffffffffffffffffffffffffff1602179055505b600160009054906101000a900473ffffffffffffffffffffffffffffffffffffffff1673ffffffffffffffffffffffffffffffffffffffff1663524f3889856040518263ffffffff167c01000000000000000000000000000000000000000000000000000000000281526004018080602001828103825283818151815260200191508051906020019080838360005b838110156120c35780820151818401526020810190506120a8565b50505050905090810190601f1680156120f05780820380516001836020036101000a031916815260200191505b5092505050602060405180830381600087803b15801561210f57600080fd5b505af1158015612123573d6000803e3d6000fd5b505050506040513d602081101561213957600080fd5b8101908080519060200190929190505050905062030d403a02670de0b6b3a76400000181111561216f576000600102915061231a565b600160009054906101000a900473ffffffffffffffffffffffffffffffffffffffff1673ffffffffffffffffffffffffffffffffffffffff1663adf59f9982600087876040518563ffffffff167c0100000000000000000000000000000000000000000000000000000000028152600401808481526020018060200180602001838103835285818151815260200191508051906020019080838360005b8381101561222757808201518184015260208101905061220c565b50505050905090810190601f1680156122545780820380516001836020036101000a031916815260200191505b50838103825284818151815260200191508051906020019080838360005b8381101561228d578082015181840152602081019050612272565b50505050905090810190601f1680156122ba5780820380516001836020036101000a031916815260200191505b50955050505050506020604051808303818588803b1580156122db57600080fd5b505af11580156122ef573d6000803e3d6000fd5b50505050506040513d602081101561230657600080fd5b810190808051906020019092919050505091505b5092915050565b60008060008311151561233357600080fd5b828481151561233e57fe5b0490508091505092915050565b6000813b9050919050565b6000612360612893565b9050919050565b6000606060008060008693506000925060009150600090505b835181101561263c5760307f01000000000000000000000000000000000000000000000000000000000000000284828151811015156123bb57fe5b9060200101517f010000000000000000000000000000000000000000000000000000000000000090047f0100000000000000000000000000000000000000000000000000000000000000027effffffffffffffffffffffffffffffffffffffffffffffffffffffffffffff1916101580156124d3575060397f010000000000000000000000000000000000000000000000000000000000000002848281518110151561246357fe5b9060200101517f010000000000000000000000000000000000000000000000000000000000000090047f0100000000000000000000000000000000000000000000000000000000000000027effffffffffffffffffffffffffffffffffffffffffffffffffffffffffffff191611155b156125845781156124f65760008614156124ec5761263c565b8580600190039650505b600a830292506030848281518110151561250c57fe5b9060200101517f010000000000000000000000000000000000000000000000000000000000000090047f0100000000000000000000000000000000000000000000000000000000000000027f01000000000000000000000000000000000000000000000000000000000000009004038301925061262f565b602e7f01000000000000000000000000000000000000000000000000000000000000000284828151811015156125b657fe5b9060200101517f010000000000000000000000000000000000000000000000000000000000000090047f0100000000000000000000000000000000000000000000000000000000000000027effffffffffffffffffffffffffffffffffffffffffffffffffffffffffffff1916141561262e57600191505b5b8080600101915050612380565b600086111561264e5785600a0a830292505b8294505050505092915050565b600080600d81905550600060088190555060006009819055506000600a819055506000600b819055506000600c81905550600090505b600780549050811015612729576000600f60006007848154811015156126b357fe5b9060005260206000200160009054906101000a900473ffffffffffffffffffffffffffffffffffffffff1673ffffffffffffffffffffffffffffffffffffffff1673ffffffffffffffffffffffffffffffffffffffff168152602001908152602001600020819055508080600101915050612691565b60006007816127389190612e3c565b5050565b6060600080606060008086141561278a576040805190810160405280600181526020017f3000000000000000000000000000000000000000000000000000000000000000815250945061288a565b8593505b6000841415156127b4578280600101935050600a848115156127ac57fe5b04935061278e565b826040519080825280601f01601f1916602001820160405280156127e75781602001602082028038833980820191505090505b5091506001830390505b60008614151561288657600a8681151561280757fe5b066030017f01000000000000000000000000000000000000000000000000000000000000000282828060019003935081518110151561284257fe5b9060200101907effffffffffffffffffffffffffffffffffffffffffffffffffffffffffffff1916908160001a905350600a8681151561287e57fe5b0495506127f1565b8194505b50505050919050565b6000806128b3731d3b2638a7cc9f2cb3d298a3da7a90b67e5506ed61234b565b111561295457731d3b2638a7cc9f2cb3d298a3da7a90b67e5506ed6000806101000a81548173ffffffffffffffffffffffffffffffffffffffff021916908373ffffffffffffffffffffffffffffffffffffffff16021790555061294b6040805190810160405280600b81526020017f6574685f6d61696e6e6574000000000000000000000000000000000000000000815250612d22565b60019050612d1f565b600061297373c03a2615d5efaf5f49f60b7bb6583eaec212fdf161234b565b1115612a145773c03a2615d5efaf5f49f60b7bb6583eaec212fdf16000806101000a81548173ffffffffffffffffffffffffffffffffffffffff021916908373ffffffffffffffffffffffffffffffffffffffff160217905550612a0b6040805190810160405280600c81526020017f6574685f726f707374656e330000000000000000000000000000000000000000815250612d22565b60019050612d1f565b6000612a3373b7a07bcf2ba2f2703b24c0691b5278999c59ac7e61234b565b1115612ad45773b7a07bcf2ba2f2703b24c0691b5278999c59ac7e6000806101000a81548173ffffffffffffffffffffffffffffffffffffffff021916908373ffffffffffffffffffffffffffffffffffffffff160217905550612acb6040805190810160405280600981526020017f6574685f6b6f76616e0000000000000000000000000000000000000000000000815250612d22565b60019050612d1f565b6000612af373146500cfd35b22e4a392fe0adc06de1a1368ed4861234b565b1115612b945773146500cfd35b22e4a392fe0adc06de1a1368ed486000806101000a81548173ffffffffffffffffffffffffffffffffffffffff021916908373ffffffffffffffffffffffffffffffffffffffff160217905550612b8b6040805190810160405280600b81526020017f6574685f72696e6b656279000000000000000000000000000000000000000000815250612d22565b60019050612d1f565b6000612bb3736f485c8bf6fc43ea212e93bbf8ce046c7f1cb47561234b565b1115612c1657736f485c8bf6fc43ea212e93bbf8ce046c7f1cb4756000806101000a81548173ffffffffffffffffffffffffffffffffffffffff021916908373ffffffffffffffffffffffffffffffffffffffff16021790555060019050612d1f565b6000612c357320e12a1f859b3feae5fb2a0a32c18f5a65555bbf61234b565b1115612c98577320e12a1f859b3feae5fb2a0a32c18f5a65555bbf6000806101000a81548173ffffffffffffffffffffffffffffffffffffffff021916908373ffffffffffffffffffffffffffffffffffffffff16021790555060019050612d1f565b6000612cb77351efaf4c8b3c9afbd5ab9f4bbc82784ab6ef8faa61234b565b1115612d1a577351efaf4c8b3c9afbd5ab9f4bbc82784ab6ef8faa6000806101000a81548173ffffffffffffffffffffffffffffffffffffffff021916908373ffffffffffffffffffffffffffffffffffffffff16021790555060019050612d1f565b600090505b90565b8060029080519060200190612d38929190612dbc565b5050565b828054600181600116156101000203166002900490600052602060002090601f016020900481019282601f10612d7d57805160ff1916838001178555612dab565b82800160010185558215612dab579182015b82811115612daa578251825591602001919060010190612d8f565b5b509050612db89190612e68565b5090565b828054600181600116156101000203166002900490600052602060002090601f016020900481019282601f10612dfd57805160ff1916838001178555612e2b565b82800160010185558215612e2b579182015b82811115612e2a578251825591602001919060010190612e0f565b5b509050612e389190612e68565b5090565b815481835581811115612e6357818360005260206000209182019101612e629190612e68565b5b505050565b612e8a91905b80821115612e86576000816000905550600101612e6e565b5090565b905600a165627a7a72305820740dc153581e0c04c962151676d63a9259659a4e2793d5775d7fe7424042373600295b55524c5d205b276a736f6e2868747470733a2f2f6170692e72616e646f6d2e6f72672f6a736f6e2d7270632f312f696e766f6b65292e726573756c742e72616e646f6d5b2264617461225d272c20275c6e7b226a736f6e727063223a2022322e30222c20226d6574686f64223a202267656e6572617465496e746567657273222c2022706172616d73223a207b20226170694b6579223a2022247b5b646563727970745d204250446933375578744c77373661656c693653427172395475746e794430724b4746776a45425638676b6d59344655754a316d554a595363592b582f5537642f6f4a497832756948493950626f634b65366634794d7274312b36647a347a52344f6e2f45694c2f5354764d6d424e3453394e476c3370654c3770334a7250753172543077576843794f5959746b754e79684f684c2b5a5461663834657d222c20226e223a20312c20226d696e223a20312c20226d6178223a20",
  "source": "pragma solidity ^0.4.23;\nimport \"./SafeMath.sol\";\nimport \"./oraclize_API.sol\";\n\ncontract Lottery is usingOraclize {\n    /**\n    *   @dev Variables, Mappings & Modifiers\n    */\n    \n    using SafeMath for uint;\n    \n    bytes newProof;\n\n    address public owner;\n    address[] buyerPosition;\n    \n    uint constant gasLimitForOraclize = 175000;\n    uint public softCap;\n    uint public hardCap;\n    uint public villaPrice;\n    uint public ticketPrice;\n    uint public startTime;\n    uint public ticketsPurchased;\n    \n    bool public isInitialized = false;\n    \n    mapping (address => uint) ownerTicketCount;\n    mapping (bytes32 => bool) validId;\n    \n    modifier onlyOwner() {\n        require(owner == msg.sender, \"Not owner\");\n        _;\n    }\n    \n    /**\n    *   @dev Events\n    */\n    \n    event lottoInitialized (\n        uint softCap,\n        uint hardCap,\n        uint villaPrice,\n        uint ticketPrice,\n        uint startTime\n    );\n\n    event ticketPurchased (\n        address buyer,\n        uint amount\n    );\n\n    event logNumberReceived (\n        uint number\n    );\n    \n    event logQuery (\n        string description\n    );\n    \n    event winner (\n        address winner\n    );\n\n    /**\n    *   @dev Constructor\n    */\n    \n    constructor() public payable {\n        owner = msg.sender;\n        oraclize_setCustomGasPrice(1000000000 wei);\n        oraclize_setProof(proofType_TLSNotary | proofStorage_IPFS);\n    }\n\n    /**\n    *   @dev Helper/Getter functions\n    */\n\n    function getTicketAmount(address _owner) public view returns (uint) {\n        return (ownerTicketCount[_owner]);\n    }\n\n    function getbuyerPositions() public view returns (address[] memory) {\n        return buyerPosition;\n    }\n    \n    /**\n    *   @dev Initialize the lottery with the appropriate values. Only available to contract owner.\n     */\n\n    function initialize(uint256 soft, uint256 hard, uint256 villa, uint ticket, uint256 time) public onlyOwner {\n        require(!isInitialized, \"Lottery is already initialized!\");\n        isInitialized = true;\n        \n        softCap = soft;\n        hardCap = hard;\n        villaPrice = villa;\n        ticketPrice = ticket;\n        startTime = now + time;\n\n        emit lottoInitialized(softCap, hardCap, villaPrice, ticketPrice, startTime);\n        \n    }\n    \n    function _resetBalances() private {\n        ticketsPurchased = 0;\n        softCap = 0;\n        hardCap = 0;\n        villaPrice = 0;\n        ticketPrice = 0;\n        startTime = 0;\n        \n        for (uint i = 0; i < buyerPosition.length; i++) {\n            ownerTicketCount[buyerPosition[i]] = 0; \n        }\n        \n        buyerPosition.length = 0;\n        \n        \n    }\n\n    /**\n    *   @dev Give a free first ticket to anyone who has been verified. verification is done off-chain and the owner calls the function. (OnlyOwner)\n     */\n    \n    function freeTicket(address buyer) public onlyOwner {\n        require(isInitialized, \"Lottery is not initialized.\");\n        require(ownerTicketCount[buyer] == 0, \"Buyer already has tickets.\");\n\n        ownerTicketCount[buyer] = ownerTicketCount[buyer].add(1);\n        ticketsPurchased = ticketsPurchased.add(1);\n\n        buyerPosition.push(buyer);\n\n        emit ticketPurchased(buyer, 1);\n    }\n\n    /**\n    *   @dev Buy an amount of tickets based on the amount of ether sent and the ticket price. Available to      all lottery participants.\n     */\n\n    function buyTicket() public payable {\n        require(isInitialized, \"Lottery is not initialized.\");\n        require(msg.value > 0, \"No ether sent.\");\n        \n        uint value = msg.value.div(ticketPrice);\n        ownerTicketCount[msg.sender] = ownerTicketCount[msg.sender].add(value);\n        ticketsPurchased = ticketsPurchased.add(value);\n\n        //instead of having ticket IDs, this design tracks the order in which addresses participate.\n        buyerPosition.push(msg.sender);\n\n        emit ticketPurchased(msg.sender, value);\n    }\n    \n    /**\n     * @dev Oraclize callback function\n    */\n    \n    function __callback(bytes32 qId, string result, bytes proof) public {\n        require(msg.sender == oraclize_cbAddress(), \"Wrong address\");\n        require(validId[qId], \"Invalid ID\");\n        \n        newProof = proof;\n        \n        uint randomNumber = parseInt(result);\n        \n        emit logNumberReceived(randomNumber);\n        \n        validId[qId] = false;\n        \n        emit winner(getWinner(randomNumber));\n        \n    }\n    \n    /**\n     * @dev Oraclize query to random.org. Fetches one random number between 0 and the\n     * total amount of tickets purchased. Returns the value in the callback above and calls the winner. \n    */\n    \n    function drawWinner() public onlyOwner {\n        require(isInitialized, \"Lottery is not initialized\");\n        isInitialized = false;  \n        \n        _setQuery2();   \n        _setQuery123();\n        \n        bytes32 qId = oraclize_query(\"nested\", query123);\n        \n        validId[qId] = true;\n\n        emit logQuery(\"Oraclize query was sent. Standing by for response.\");\n    }\n    \n    /**\n     * @dev Get the lottery winner and return their address.\n    */\n    \n    function getWinner(uint randomNumber) private returns (address) {\n\n        uint[] memory ownerTicketAmount = new uint[](buyerPosition.length);\n        \n        for (uint i = 0; i<buyerPosition.length; i++) {\n            ownerTicketAmount[i] = ownerTicketCount[buyerPosition[i]];\n        }\n        \n        uint ticketSum = 0;\n        address winnerAddr;\n\n        for (uint p = 0; p<ownerTicketAmount.length; p++) {\n            ticketSum = ticketSum.add(ownerTicketAmount[p]);\n            if (ticketSum >= randomNumber) {\n                winnerAddr = buyerPosition[p];\n                break;\n            }\n        }\n\n        _resetBalances();\n        return winnerAddr;\n    }\n    \n    /**\n     * @dev Each part of the Oraclize query to be concatenated.\n    */\n    \n    string query1 = \"[URL] ['json(https://api.random.org/json-rpc/1/invoke).result.random[\\\"data\\\"]', '\\\\n{\\\"jsonrpc\\\": \\\"2.0\\\", \\\"method\\\": \\\"generateIntegers\\\", \\\"params\\\": { \\\"apiKey\\\": \\\"${[decrypt] BPDi37UxtLw76aeli6SBqr9TutnyD0rKGFwjEBV8gkmY4FUuJ1mUJYScY+X/U7d/oJIx2uiHI9PbocKe6f4yMrt1+6dz4zR4On/EiL/STvMmBN4S9NGl3peL7p3JrPu1rT0wWhCyOYYtkuNyhOhL+ZTaf84e}\\\", \\\"n\\\": 1, \\\"min\\\": 1, \\\"max\\\": \";\n    string query2;\n    string query3 = \", \\\"replacement\\\": false${[identity] \\\"}\\\"}, \\\"id\\\": 1${[identity] \\\"}\\\"}']\";\n    \n    string query123;\n    \n    /**\n     * @dev Setters and getters for queries.\n    */\n    \n    function _setQuery2() private {\n        query2 = uint2str(ticketsPurchased);\n    }\n    \n    function _setQuery123() private {\n        query123 = string(abi.encodePacked(query1, query2, query3));\n    }\n    \n    function getQuery() public view returns(string) {\n        return query123;\n    }\n    /**\n     * @dev Withdraw function. Only owner can withdraw contract funds.\n    */\n    \n    function withdraw() public onlyOwner {\n        msg.sender.transfer(address(this).balance);\n    }\n    \n    /**\n     * @dev Fallback function. Refunds ether to sender unless they are the owner.\n    */\n    \n    function() public payable {\n        if (msg.sender != owner) {\n            revert();\n        }\n    }\n\n\n\n}",
  "sourcePath": "/Users/CryptoWork/Desktop/Russel_Lottery/contracts/Lottery.sol",
  "compiler": {
    "name": "solc",
    "version": "0.4.24+commit.e67f0147.Emscripten.clang"
  },
  "schemaVersion": "2.0.1",
  "updatedAt": "2018-12-18T13:54:44.575Z"
}