{
  "contractName": "Lottery",
  "abi": [
    {
      "constant": true,
      "inputs": [],
      "name": "ticketPrice",
      "outputs": [
        {
          "name": "",
          "type": "uint256"
        }
      ],
      "payable": false,
      "stateMutability": "view",
      "type": "function"
    },
    {
      "constant": true,
      "inputs": [],
      "name": "villaPrice",
      "outputs": [
        {
          "name": "",
          "type": "uint256"
        }
      ],
      "payable": false,
      "stateMutability": "view",
      "type": "function"
    },
    {
      "constant": true,
      "inputs": [],
      "name": "startTime",
      "outputs": [
        {
          "name": "",
          "type": "uint256"
        }
      ],
      "payable": false,
      "stateMutability": "view",
      "type": "function"
    },
    {
      "constant": true,
      "inputs": [],
      "name": "owner",
      "outputs": [
        {
          "name": "",
          "type": "address"
        }
      ],
      "payable": false,
      "stateMutability": "view",
      "type": "function"
    },
    {
      "constant": true,
      "inputs": [],
      "name": "softCap",
      "outputs": [
        {
          "name": "",
          "type": "uint256"
        }
      ],
      "payable": false,
      "stateMutability": "view",
      "type": "function"
    },
    {
      "constant": true,
      "inputs": [],
      "name": "ticketsPurchased",
      "outputs": [
        {
          "name": "",
          "type": "uint256"
        }
      ],
      "payable": false,
      "stateMutability": "view",
      "type": "function"
    },
    {
      "constant": true,
      "inputs": [],
      "name": "randomNumber",
      "outputs": [
        {
          "name": "",
          "type": "uint256"
        }
      ],
      "payable": false,
      "stateMutability": "view",
      "type": "function"
    },
    {
      "constant": true,
      "inputs": [],
      "name": "hardCap",
      "outputs": [
        {
          "name": "",
          "type": "uint256"
        }
      ],
      "payable": false,
      "stateMutability": "view",
      "type": "function"
    },
    {
      "inputs": [],
      "payable": true,
      "stateMutability": "payable",
      "type": "constructor"
    },
    {
      "payable": true,
      "stateMutability": "payable",
      "type": "fallback"
    },
    {
      "anonymous": false,
      "inputs": [
        {
          "indexed": false,
          "name": "softCap",
          "type": "uint256"
        },
        {
          "indexed": false,
          "name": "hardCap",
          "type": "uint256"
        },
        {
          "indexed": false,
          "name": "villaPrice",
          "type": "uint256"
        },
        {
          "indexed": false,
          "name": "ticketPrice",
          "type": "uint256"
        },
        {
          "indexed": false,
          "name": "startTime",
          "type": "uint256"
        }
      ],
      "name": "lottoInitialized",
      "type": "event"
    },
    {
      "anonymous": false,
      "inputs": [
        {
          "indexed": false,
          "name": "buyer",
          "type": "address"
        },
        {
          "indexed": false,
          "name": "amount",
          "type": "uint256"
        }
      ],
      "name": "ticketPurchased",
      "type": "event"
    },
    {
      "anonymous": false,
      "inputs": [
        {
          "indexed": false,
          "name": "number",
          "type": "uint256"
        }
      ],
      "name": "logNumberReceived",
      "type": "event"
    },
    {
      "anonymous": false,
      "inputs": [
        {
          "indexed": false,
          "name": "description",
          "type": "string"
        }
      ],
      "name": "logQuery",
      "type": "event"
    },
    {
      "anonymous": false,
      "inputs": [
        {
          "indexed": false,
          "name": "winner",
          "type": "address"
        }
      ],
      "name": "winner",
      "type": "event"
    },
    {
      "constant": true,
      "inputs": [
        {
          "name": "_owner",
          "type": "address"
        }
      ],
      "name": "getTicketAmount",
      "outputs": [
        {
          "name": "",
          "type": "uint256"
        }
      ],
      "payable": false,
      "stateMutability": "view",
      "type": "function"
    },
    {
      "constant": true,
      "inputs": [],
      "name": "getbuyerPositions",
      "outputs": [
        {
          "name": "",
          "type": "address[]"
        }
      ],
      "payable": false,
      "stateMutability": "view",
      "type": "function"
    },
    {
      "constant": true,
      "inputs": [],
      "name": "getRandomNumber",
      "outputs": [
        {
          "name": "",
          "type": "uint256"
        }
      ],
      "payable": false,
      "stateMutability": "view",
      "type": "function"
    },
    {
      "constant": false,
      "inputs": [
        {
          "name": "soft",
          "type": "uint256"
        },
        {
          "name": "hard",
          "type": "uint256"
        },
        {
          "name": "villa",
          "type": "uint256"
        },
        {
          "name": "ticket",
          "type": "uint256"
        },
        {
          "name": "time",
          "type": "uint256"
        }
      ],
      "name": "initialize",
      "outputs": [],
      "payable": false,
      "stateMutability": "nonpayable",
      "type": "function"
    },
    {
      "constant": false,
      "inputs": [
        {
          "name": "buyer",
          "type": "address"
        }
      ],
      "name": "freeTicket",
      "outputs": [],
      "payable": false,
      "stateMutability": "nonpayable",
      "type": "function"
    },
    {
      "constant": false,
      "inputs": [],
      "name": "buyTicket",
      "outputs": [],
      "payable": true,
      "stateMutability": "payable",
      "type": "function"
    },
    {
      "constant": false,
      "inputs": [
        {
          "name": "myid",
          "type": "bytes32"
        },
        {
          "name": "result",
          "type": "string"
        }
      ],
      "name": "__callback",
      "outputs": [],
      "payable": false,
      "stateMutability": "nonpayable",
      "type": "function"
    },
    {
      "constant": false,
      "inputs": [
        {
          "name": "qId",
          "type": "bytes32"
        },
        {
          "name": "result",
          "type": "string"
        },
        {
          "name": "proof",
          "type": "bytes"
        }
      ],
      "name": "__callback",
      "outputs": [],
      "payable": false,
      "stateMutability": "nonpayable",
      "type": "function"
    },
    {
      "constant": false,
      "inputs": [],
      "name": "queryRandomNumber",
      "outputs": [],
      "payable": false,
      "stateMutability": "nonpayable",
      "type": "function"
    },
    {
      "constant": true,
      "inputs": [],
      "name": "getWinner",
      "outputs": [
        {
          "name": "",
          "type": "address"
        }
      ],
      "payable": false,
      "stateMutability": "view",
      "type": "function"
    },
    {
      "constant": true,
      "inputs": [],
      "name": "getQuery",
      "outputs": [
        {
          "name": "",
          "type": "string"
        }
      ],
      "payable": false,
      "stateMutability": "view",
      "type": "function"
    }
  ],
  "bytecode": "0x608060405260006008556000600f60006101000a81548160ff0219169083151502179055506101806040519081016040528061015f815260200162003d0261015f9139601390805190602001906200005992919062000e81565b50608060405190810160405280604381526020017f2c20227265706c6163656d656e74223a2066616c7365247b5b6964656e74697481526020017f795d20227d227d2c20226964223a2031247b5b6964656e746974795d20227d2281526020017f7d275d000000000000000000000000000000000000000000000000000000000081525060159080519060200190620000f492919062000e81565b5033600660006101000a81548173ffffffffffffffffffffffffffffffffffffffff021916908373ffffffffffffffffffffffffffffffffffffffff16021790555062000154633b9aca00620001bc640100000000026401000000009004565b620001b660017f01000000000000000000000000000000000000000000000000000000000000000260107f010000000000000000000000000000000000000000000000000000000000000002176200052c640100000000026401000000009004565b62000f30565b60008060009054906101000a900473ffffffffffffffffffffffffffffffffffffffff1673ffffffffffffffffffffffffffffffffffffffff1614806200023d575060006200023b6000809054906101000a900473ffffffffffffffffffffffffffffffffffffffff16620008e0640100000000026401000000009004565b145b1562000260576200025e6000620008eb640100000000026401000000009004565b505b6000809054906101000a900473ffffffffffffffffffffffffffffffffffffffff1673ffffffffffffffffffffffffffffffffffffffff166338cc48316040518163ffffffff167c0100000000000000000000000000000000000000000000000000000000028152600401602060405180830381600087803b158015620002e657600080fd5b505af1158015620002fb573d6000803e3d6000fd5b505050506040513d60208110156200031257600080fd5b810190808051906020019092919050505073ffffffffffffffffffffffffffffffffffffffff16600160009054906101000a900473ffffffffffffffffffffffffffffffffffffffff1673ffffffffffffffffffffffffffffffffffffffff161415156200047e576000809054906101000a900473ffffffffffffffffffffffffffffffffffffffff1673ffffffffffffffffffffffffffffffffffffffff166338cc48316040518163ffffffff167c0100000000000000000000000000000000000000000000000000000000028152600401602060405180830381600087803b1580156200040057600080fd5b505af115801562000415573d6000803e3d6000fd5b505050506040513d60208110156200042c57600080fd5b8101908080519060200190929190505050600160006101000a81548173ffffffffffffffffffffffffffffffffffffffff021916908373ffffffffffffffffffffffffffffffffffffffff1602179055505b600160009054906101000a900473ffffffffffffffffffffffffffffffffffffffff1673ffffffffffffffffffffffffffffffffffffffff1663ca6ad1e4826040518263ffffffff167c010000000000000000000000000000000000000000000000000000000002815260040180828152602001915050600060405180830381600087803b1580156200051057600080fd5b505af115801562000525573d6000803e3d6000fd5b5050505050565b60008060009054906101000a900473ffffffffffffffffffffffffffffffffffffffff1673ffffffffffffffffffffffffffffffffffffffff161480620005ad57506000620005ab6000809054906101000a900473ffffffffffffffffffffffffffffffffffffffff16620008e0640100000000026401000000009004565b145b15620005d057620005ce6000620008eb640100000000026401000000009004565b505b6000809054906101000a900473ffffffffffffffffffffffffffffffffffffffff1673ffffffffffffffffffffffffffffffffffffffff166338cc48316040518163ffffffff167c0100000000000000000000000000000000000000000000000000000000028152600401602060405180830381600087803b1580156200065657600080fd5b505af11580156200066b573d6000803e3d6000fd5b505050506040513d60208110156200068257600080fd5b810190808051906020019092919050505073ffffffffffffffffffffffffffffffffffffffff16600160009054906101000a900473ffffffffffffffffffffffffffffffffffffffff1673ffffffffffffffffffffffffffffffffffffffff16141515620007ee576000809054906101000a900473ffffffffffffffffffffffffffffffffffffffff1673ffffffffffffffffffffffffffffffffffffffff166338cc48316040518163ffffffff167c0100000000000000000000000000000000000000000000000000000000028152600401602060405180830381600087803b1580156200077057600080fd5b505af115801562000785573d6000803e3d6000fd5b505050506040513d60208110156200079c57600080fd5b8101908080519060200190929190505050600160006101000a81548173ffffffffffffffffffffffffffffffffffffffff021916908373ffffffffffffffffffffffffffffffffffffffff1602179055505b600160009054906101000a900473ffffffffffffffffffffffffffffffffffffffff1673ffffffffffffffffffffffffffffffffffffffff1663688dcfd7826040518263ffffffff167c010000000000000000000000000000000000000000000000000000000002815260040180827effffffffffffffffffffffffffffffffffffffffffffffffffffffffffffff19167effffffffffffffffffffffffffffffffffffffffffffffffffffffffffffff19168152602001915050600060405180830381600087803b158015620008c457600080fd5b505af1158015620008d9573d6000803e3d6000fd5b5050505050565b6000813b9050919050565b6000620009066200090d640100000000026401000000009004565b9050919050565b6000806200093e731d3b2638a7cc9f2cb3d298a3da7a90b67e5506ed620008e0640100000000026401000000009004565b1115620009f257731d3b2638a7cc9f2cb3d298a3da7a90b67e5506ed6000806101000a81548173ffffffffffffffffffffffffffffffffffffffff021916908373ffffffffffffffffffffffffffffffffffffffff160217905550620009e86040805190810160405280600b81526020017f6574685f6d61696e6e657400000000000000000000000000000000000000000081525062000e65640100000000026401000000009004565b6001905062000e62565b600062000a2273c03a2615d5efaf5f49f60b7bb6583eaec212fdf1620008e0640100000000026401000000009004565b111562000ad65773c03a2615d5efaf5f49f60b7bb6583eaec212fdf16000806101000a81548173ffffffffffffffffffffffffffffffffffffffff021916908373ffffffffffffffffffffffffffffffffffffffff16021790555062000acc6040805190810160405280600c81526020017f6574685f726f707374656e33000000000000000000000000000000000000000081525062000e65640100000000026401000000009004565b6001905062000e62565b600062000b0673b7a07bcf2ba2f2703b24c0691b5278999c59ac7e620008e0640100000000026401000000009004565b111562000bba5773b7a07bcf2ba2f2703b24c0691b5278999c59ac7e6000806101000a81548173ffffffffffffffffffffffffffffffffffffffff021916908373ffffffffffffffffffffffffffffffffffffffff16021790555062000bb06040805190810160405280600981526020017f6574685f6b6f76616e000000000000000000000000000000000000000000000081525062000e65640100000000026401000000009004565b6001905062000e62565b600062000bea73146500cfd35b22e4a392fe0adc06de1a1368ed48620008e0640100000000026401000000009004565b111562000c9e5773146500cfd35b22e4a392fe0adc06de1a1368ed486000806101000a81548173ffffffffffffffffffffffffffffffffffffffff021916908373ffffffffffffffffffffffffffffffffffffffff16021790555062000c946040805190810160405280600b81526020017f6574685f72696e6b65627900000000000000000000000000000000000000000081525062000e65640100000000026401000000009004565b6001905062000e62565b600062000cce736f485c8bf6fc43ea212e93bbf8ce046c7f1cb475620008e0640100000000026401000000009004565b111562000d3357736f485c8bf6fc43ea212e93bbf8ce046c7f1cb4756000806101000a81548173ffffffffffffffffffffffffffffffffffffffff021916908373ffffffffffffffffffffffffffffffffffffffff1602179055506001905062000e62565b600062000d637320e12a1f859b3feae5fb2a0a32c18f5a65555bbf620008e0640100000000026401000000009004565b111562000dc8577320e12a1f859b3feae5fb2a0a32c18f5a65555bbf6000806101000a81548173ffffffffffffffffffffffffffffffffffffffff021916908373ffffffffffffffffffffffffffffffffffffffff1602179055506001905062000e62565b600062000df87351efaf4c8b3c9afbd5ab9f4bbc82784ab6ef8faa620008e0640100000000026401000000009004565b111562000e5d577351efaf4c8b3c9afbd5ab9f4bbc82784ab6ef8faa6000806101000a81548173ffffffffffffffffffffffffffffffffffffffff021916908373ffffffffffffffffffffffffffffffffffffffff1602179055506001905062000e62565b600090505b90565b806002908051906020019062000e7d92919062000e81565b5050565b828054600181600116156101000203166002900490600052602060002090601f016020900481019282601f1062000ec457805160ff191683800117855562000ef5565b8280016001018555821562000ef5579182015b8281111562000ef457825182559160200191906001019062000ed7565b5b50905062000f04919062000f08565b5090565b62000f2d91905b8082111562000f2957600081600090555060010162000f0f565b5090565b90565b612dc28062000f406000396000f300608060405260043610610107576000357c0100000000000000000000000000000000000000000000000000000000900463ffffffff1680631209b1f61461016557806327dc297e1461019057806338bbfa50146102075780633d0bd180146102c457806371d0bab41461030757806378bd29171461033257806378e97925146103895780638da5cb5b146103b45780638e7ea5b21461040b578063906a26e01461046257806390a7ba5b1461048d5780639c742f93146104b8578063b3b4c27814610548578063ccbac9f51461055f578063d116df801461058a578063dbdff2c1146105f6578063dcbab60814610621578063edca914c14610676578063fb86a40414610680575b600660009054906101000a900473ffffffffffffffffffffffffffffffffffffffff1673ffffffffffffffffffffffffffffffffffffffff163373ffffffffffffffffffffffffffffffffffffffff1614151561016357600080fd5b005b34801561017157600080fd5b5061017a6106ab565b6040518082815260200191505060405180910390f35b34801561019c57600080fd5b506102056004803603810190808035600019169060200190929190803590602001908201803590602001908080601f01602080910402602001604051908101604052809392919081815260200183838082843782019150505050505091929192905050506106b1565b005b34801561021357600080fd5b506102c26004803603810190808035600019169060200190929190803590602001908201803590602001908080601f0160208091040260200160405190810160405280939291908181526020018383808284378201915050505050509192919290803590602001908201803590602001908080601f01602080910402602001604051908101604052809392919081815260200183838082843782019150505050505091929192905050506106f4565b005b3480156102d057600080fd5b50610305600480360381019080803573ffffffffffffffffffffffffffffffffffffffff1690602001909291905050506108d3565b005b34801561031357600080fd5b5061031c610c5a565b6040518082815260200191505060405180910390f35b34801561033e57600080fd5b50610373600480360381019080803573ffffffffffffffffffffffffffffffffffffffff169060200190929190505050610c60565b6040518082815260200191505060405180910390f35b34801561039557600080fd5b5061039e610ca9565b6040518082815260200191505060405180910390f35b3480156103c057600080fd5b506103c9610caf565b604051808273ffffffffffffffffffffffffffffffffffffffff1673ffffffffffffffffffffffffffffffffffffffff16815260200191505060405180910390f35b34801561041757600080fd5b50610420610cd5565b604051808273ffffffffffffffffffffffffffffffffffffffff1673ffffffffffffffffffffffffffffffffffffffff16815260200191505060405180910390f35b34801561046e57600080fd5b50610477610fa8565b6040518082815260200191505060405180910390f35b34801561049957600080fd5b506104a2610fae565b6040518082815260200191505060405180910390f35b3480156104c457600080fd5b506104cd610fb4565b6040518080602001828103825283818151815260200191508051906020019080838360005b8381101561050d5780820151818401526020810190506104f2565b50505050905090810190601f16801561053a5780820380516001836020036101000a031916815260200191505b509250505060405180910390f35b34801561055457600080fd5b5061055d611056565b005b34801561056b57600080fd5b5061057461136c565b6040518082815260200191505060405180910390f35b34801561059657600080fd5b5061059f611372565b6040518080602001828103825283818151815260200191508051906020019060200280838360005b838110156105e25780820151818401526020810190506105c7565b505050509050019250505060405180910390f35b34801561060257600080fd5b5061060b611400565b6040518082815260200191505060405180910390f35b34801561062d57600080fd5b50610674600480360381019080803590602001909291908035906020019092919080359060200190929190803590602001909291908035906020019092919050505061140a565b005b61067e6115fc565b005b34801561068c57600080fd5b50610695611895565b6040518082815260200191505060405180910390f35b600c5481565b6106f0828260006040519080825280601f01601f1916602001820160405280156106ea5781602001602082028038833980820191505090505b506106f4565b5050565b6106fc61189b565b73ffffffffffffffffffffffffffffffffffffffff163373ffffffffffffffffffffffffffffffffffffffff1614151561079e576040517f08c379a000000000000000000000000000000000000000000000000000000000815260040180806020018281038252600d8152602001807f57726f6e6720616464726573730000000000000000000000000000000000000081525060200191505060405180910390fd5b60126000846000191660001916815260200190815260200160002060009054906101000a900460ff16151561083b576040517f08c379a000000000000000000000000000000000000000000000000000000000815260040180806020018281038252600a8152602001807f496e76616c69642049440000000000000000000000000000000000000000000081525060200191505060405180910390fd5b8060059080519060200190610851929190612c71565b5061085b82611bf9565b6008819055507f4300e48b36cdb4a1d5578d2ba489ffe9e709e371f53a7d2923a9f7cecf11c5fc6008546040518082815260200191505060405180910390a1600060126000856000191660001916815260200190815260200160002060006101000a81548160ff021916908315150217905550505050565b3373ffffffffffffffffffffffffffffffffffffffff16600660009054906101000a900473ffffffffffffffffffffffffffffffffffffffff1673ffffffffffffffffffffffffffffffffffffffff16141515610998576040517f08c379a00000000000000000000000000000000000000000000000000000000081526004018080602001828103825260098152602001807f4e6f74206f776e6572000000000000000000000000000000000000000000000081525060200191505060405180910390fd5b600f60009054906101000a900460ff161515610a1c576040517f08c379a000000000000000000000000000000000000000000000000000000000815260040180806020018281038252601b8152602001807f4c6f7474657279206973206e6f7420696e697469616c697a65642e000000000081525060200191505060405180910390fd5b6000601060008373ffffffffffffffffffffffffffffffffffffffff1673ffffffffffffffffffffffffffffffffffffffff16815260200190815260200160002054141515610ad3576040517f08c379a000000000000000000000000000000000000000000000000000000000815260040180806020018281038252601a8152602001807f427579657220616c726561647920686173207469636b6574732e00000000000081525060200191505060405180910390fd5b610b266001601060008473ffffffffffffffffffffffffffffffffffffffff1673ffffffffffffffffffffffffffffffffffffffff16815260200190815260200160002054611c0d90919063ffffffff16565b601060008373ffffffffffffffffffffffffffffffffffffffff1673ffffffffffffffffffffffffffffffffffffffff16815260200190815260200160002081905550610b7f6001600e54611c0d90919063ffffffff16565b600e8190555060078190806001815401808255809150509060018203906000526020600020016000909192909190916101000a81548173ffffffffffffffffffffffffffffffffffffffff021916908373ffffffffffffffffffffffffffffffffffffffff160217905550507f80f8cde1dbefb5cb9fab659a41081b98fa88b0e4879ec7f6c870d8c8129e27e0816001604051808373ffffffffffffffffffffffffffffffffffffffff1673ffffffffffffffffffffffffffffffffffffffff1681526020018281526020019250505060405180910390a150565b600b5481565b6000601060008373ffffffffffffffffffffffffffffffffffffffff1673ffffffffffffffffffffffffffffffffffffffff168152602001908152602001600020549050919050565b600d5481565b600660009054906101000a900473ffffffffffffffffffffffffffffffffffffffff1681565b6000606060008060003373ffffffffffffffffffffffffffffffffffffffff16600660009054906101000a900473ffffffffffffffffffffffffffffffffffffffff1673ffffffffffffffffffffffffffffffffffffffff16141515610da3576040517f08c379a00000000000000000000000000000000000000000000000000000000081526004018080602001828103825260098152602001807f4e6f74206f776e6572000000000000000000000000000000000000000000000081525060200191505060405180910390fd5b600060085414151515610e1e576040517f08c379a000000000000000000000000000000000000000000000000000000000815260040180806020018281038252601f8152602001807f52616e646f6d206e756d626572206e6f7420796574207265636569766564210081525060200191505060405180910390fd5b600780549050604051908082528060200260200182016040528015610e525781602001602082028038833980820191505090505b509350600092505b600780549050831015610f095760106000600785815481101515610e7a57fe5b9060005260206000200160009054906101000a900473ffffffffffffffffffffffffffffffffffffffff1673ffffffffffffffffffffffffffffffffffffffff1673ffffffffffffffffffffffffffffffffffffffff168152602001908152602001600020548484815181101515610eee57fe5b90602001906020020181815250508280600101935050610e5a565b60009150600090505b8351811015610fa057610f458482815181101515610f2c57fe5b9060200190602002015183611c0d90919063ffffffff16565b915060085482101515610f9357600781815481101515610f6157fe5b9060005260206000200160009054906101000a900473ffffffffffffffffffffffffffffffffffffffff169450610fa1565b8080600101915050610f12565b5b5050505090565b60095481565b600e5481565b606060168054600181600116156101000203166002900480601f01602080910402602001604051908101604052809291908181526020018280546001816001161561010002031660029004801561104c5780601f106110215761010080835404028352916020019161104c565b820191906000526020600020905b81548152906001019060200180831161102f57829003601f168201915b5050505050905090565b60003373ffffffffffffffffffffffffffffffffffffffff16600660009054906101000a900473ffffffffffffffffffffffffffffffffffffffff1673ffffffffffffffffffffffffffffffffffffffff1614151561111d576040517f08c379a00000000000000000000000000000000000000000000000000000000081526004018080602001828103825260098152602001807f4e6f74206f776e6572000000000000000000000000000000000000000000000081525060200191505060405180910390fd5b600f60009054906101000a900460ff1615156111a1576040517f08c379a000000000000000000000000000000000000000000000000000000000815260040180806020018281038252601a8152602001807f4c6f7474657279206973206e6f7420696e697469616c697a656400000000000081525060200191505060405180910390fd5b6000600f60006101000a81548160ff0219169083151502179055506111c4611c2e565b6111cc611c51565b6112a56040805190810160405280600681526020017f6e6573746564000000000000000000000000000000000000000000000000000081525060168054600181600116156101000203166002900480601f01602080910402602001604051908101604052809291908181526020018280546001816001161561010002031660029004801561129b5780601f106112705761010080835404028352916020019161129b565b820191906000526020600020905b81548152906001019060200180831161127e57829003601f168201915b5050505050611d95565b9050600160126000836000191660001916815260200190815260200160002060006101000a81548160ff0219169083151502179055507f18d7185daabaec12aeca0c54a5d3a37eda3c6bb0b360ef3688245118e7a45dfd6040518080602001828103825260328152602001807f4f7261636c697a65207175657279207761732073656e742e205374616e64696e81526020017f6720627920666f7220726573706f6e73652e000000000000000000000000000081525060400191505060405180910390a150565b60085481565b606060078054806020026020016040519081016040528092919081815260200182805480156113f657602002820191906000526020600020905b8160009054906101000a900473ffffffffffffffffffffffffffffffffffffffff1673ffffffffffffffffffffffffffffffffffffffff16815260200190600101908083116113ac575b5050505050905090565b6000600854905090565b3373ffffffffffffffffffffffffffffffffffffffff16600660009054906101000a900473ffffffffffffffffffffffffffffffffffffffff1673ffffffffffffffffffffffffffffffffffffffff161415156114cf576040517f08c379a00000000000000000000000000000000000000000000000000000000081526004018080602001828103825260098152602001807f4e6f74206f776e6572000000000000000000000000000000000000000000000081525060200191505060405180910390fd5b600f60009054906101000a900460ff16151515611554576040517f08c379a000000000000000000000000000000000000000000000000000000000815260040180806020018281038252601f8152602001807f4c6f747465727920697320616c726561647920696e697469616c697a6564210081525060200191505060405180910390fd5b6001600f60006101000a81548160ff0219169083151502179055508460098190555083600a8190555082600b8190555081600c81905550804201600d819055507f7835784bf717bb333bfdc4e8ff60b9837afa3b8d61bb6df5a8539dcddedfa21e600954600a54600b54600c54600d54604051808681526020018581526020018481526020018381526020018281526020019550505050505060405180910390a15050505050565b6000600f60009054906101000a900460ff161515611682576040517f08c379a000000000000000000000000000000000000000000000000000000000815260040180806020018281038252601b8152602001807f4c6f7474657279206973206e6f7420696e697469616c697a65642e000000000081525060200191505060405180910390fd5b6000341115156116fa576040517f08c379a000000000000000000000000000000000000000000000000000000000815260040180806020018281038252600e8152602001807f4e6f2065746865722073656e742e00000000000000000000000000000000000081525060200191505060405180910390fd5b61170f600c543461233790919063ffffffff16565b905061176381601060003373ffffffffffffffffffffffffffffffffffffffff1673ffffffffffffffffffffffffffffffffffffffff16815260200190815260200160002054611c0d90919063ffffffff16565b601060003373ffffffffffffffffffffffffffffffffffffffff1673ffffffffffffffffffffffffffffffffffffffff168152602001908152602001600020819055506117bb81600e54611c0d90919063ffffffff16565b600e8190555060073390806001815401808255809150509060018203906000526020600020016000909192909190916101000a81548173ffffffffffffffffffffffffffffffffffffffff021916908373ffffffffffffffffffffffffffffffffffffffff160217905550507f80f8cde1dbefb5cb9fab659a41081b98fa88b0e4879ec7f6c870d8c8129e27e03382604051808373ffffffffffffffffffffffffffffffffffffffff1673ffffffffffffffffffffffffffffffffffffffff1681526020018281526020019250505060405180910390a150565b600a5481565b6000806000809054906101000a900473ffffffffffffffffffffffffffffffffffffffff1673ffffffffffffffffffffffffffffffffffffffff16148061190b575060006119096000809054906101000a900473ffffffffffffffffffffffffffffffffffffffff16612361565b145b1561191c5761191a600061236c565b505b6000809054906101000a900473ffffffffffffffffffffffffffffffffffffffff1673ffffffffffffffffffffffffffffffffffffffff166338cc48316040518163ffffffff167c0100000000000000000000000000000000000000000000000000000000028152600401602060405180830381600087803b1580156119a157600080fd5b505af11580156119b5573d6000803e3d6000fd5b505050506040513d60208110156119cb57600080fd5b810190808051906020019092919050505073ffffffffffffffffffffffffffffffffffffffff16600160009054906101000a900473ffffffffffffffffffffffffffffffffffffffff1673ffffffffffffffffffffffffffffffffffffffff16141515611b33576000809054906101000a900473ffffffffffffffffffffffffffffffffffffffff1673ffffffffffffffffffffffffffffffffffffffff166338cc48316040518163ffffffff167c0100000000000000000000000000000000000000000000000000000000028152600401602060405180830381600087803b158015611ab757600080fd5b505af1158015611acb573d6000803e3d6000fd5b505050506040513d6020811015611ae157600080fd5b8101908080519060200190929190505050600160006101000a81548173ffffffffffffffffffffffffffffffffffffffff021916908373ffffffffffffffffffffffffffffffffffffffff1602179055505b600160009054906101000a900473ffffffffffffffffffffffffffffffffffffffff1673ffffffffffffffffffffffffffffffffffffffff1663c281d19e6040518163ffffffff167c0100000000000000000000000000000000000000000000000000000000028152600401602060405180830381600087803b158015611bb957600080fd5b505af1158015611bcd573d6000803e3d6000fd5b505050506040513d6020811015611be357600080fd5b8101908080519060200190929190505050905090565b6000611c0682600061237d565b9050919050565b6000808284019050838110151515611c2457600080fd5b8091505092915050565b611c39600e54612671565b60149080519060200190611c4e929190612cf1565b50565b6013601460156040516020018084805460018160011615610100020316600290048015611cb55780601f10611c93576101008083540402835291820191611cb5565b820191906000526020600020905b815481529060010190602001808311611ca1575b505083805460018160011615610100020316600290048015611d0e5780601f10611cec576101008083540402835291820191611d0e565b820191906000526020600020905b815481529060010190602001808311611cfa575b505082805460018160011615610100020316600290048015611d675780601f10611d45576101008083540402835291820191611d67565b820191906000526020600020905b815481529060010190602001808311611d53575b5050935050505060405160208183030381529060405260169080519060200190611d92929190612cf1565b50565b60008060008060009054906101000a900473ffffffffffffffffffffffffffffffffffffffff1673ffffffffffffffffffffffffffffffffffffffff161480611e0757506000611e056000809054906101000a900473ffffffffffffffffffffffffffffffffffffffff16612361565b145b15611e1857611e16600061236c565b505b6000809054906101000a900473ffffffffffffffffffffffffffffffffffffffff1673ffffffffffffffffffffffffffffffffffffffff166338cc48316040518163ffffffff167c0100000000000000000000000000000000000000000000000000000000028152600401602060405180830381600087803b158015611e9d57600080fd5b505af1158015611eb1573d6000803e3d6000fd5b505050506040513d6020811015611ec757600080fd5b810190808051906020019092919050505073ffffffffffffffffffffffffffffffffffffffff16600160009054906101000a900473ffffffffffffffffffffffffffffffffffffffff1673ffffffffffffffffffffffffffffffffffffffff1614151561202f576000809054906101000a900473ffffffffffffffffffffffffffffffffffffffff1673ffffffffffffffffffffffffffffffffffffffff166338cc48316040518163ffffffff167c0100000000000000000000000000000000000000000000000000000000028152600401602060405180830381600087803b158015611fb357600080fd5b505af1158015611fc7573d6000803e3d6000fd5b505050506040513d6020811015611fdd57600080fd5b8101908080519060200190929190505050600160006101000a81548173ffffffffffffffffffffffffffffffffffffffff021916908373ffffffffffffffffffffffffffffffffffffffff1602179055505b600160009054906101000a900473ffffffffffffffffffffffffffffffffffffffff1673ffffffffffffffffffffffffffffffffffffffff1663524f3889856040518263ffffffff167c01000000000000000000000000000000000000000000000000000000000281526004018080602001828103825283818151815260200191508051906020019080838360005b838110156120d95780820151818401526020810190506120be565b50505050905090810190601f1680156121065780820380516001836020036101000a031916815260200191505b5092505050602060405180830381600087803b15801561212557600080fd5b505af1158015612139573d6000803e3d6000fd5b505050506040513d602081101561214f57600080fd5b8101908080519060200190929190505050905062030d403a02670de0b6b3a7640000018111156121855760006001029150612330565b600160009054906101000a900473ffffffffffffffffffffffffffffffffffffffff1673ffffffffffffffffffffffffffffffffffffffff1663adf59f9982600087876040518563ffffffff167c0100000000000000000000000000000000000000000000000000000000028152600401808481526020018060200180602001838103835285818151815260200191508051906020019080838360005b8381101561223d578082015181840152602081019050612222565b50505050905090810190601f16801561226a5780820380516001836020036101000a031916815260200191505b50838103825284818151815260200191508051906020019080838360005b838110156122a3578082015181840152602081019050612288565b50505050905090810190601f1680156122d05780820380516001836020036101000a031916815260200191505b50955050505050506020604051808303818588803b1580156122f157600080fd5b505af1158015612305573d6000803e3d6000fd5b50505050506040513d602081101561231c57600080fd5b810190808051906020019092919050505091505b5092915050565b60008060008311151561234957600080fd5b828481151561235457fe5b0490508091505092915050565b6000813b9050919050565b60006123766127c8565b9050919050565b6000606060008060008693506000925060009150600090505b83518110156126525760307f01000000000000000000000000000000000000000000000000000000000000000284828151811015156123d157fe5b9060200101517f010000000000000000000000000000000000000000000000000000000000000090047f0100000000000000000000000000000000000000000000000000000000000000027effffffffffffffffffffffffffffffffffffffffffffffffffffffffffffff1916101580156124e9575060397f010000000000000000000000000000000000000000000000000000000000000002848281518110151561247957fe5b9060200101517f010000000000000000000000000000000000000000000000000000000000000090047f0100000000000000000000000000000000000000000000000000000000000000027effffffffffffffffffffffffffffffffffffffffffffffffffffffffffffff191611155b1561259a57811561250c57600086141561250257612652565b8580600190039650505b600a830292506030848281518110151561252257fe5b9060200101517f010000000000000000000000000000000000000000000000000000000000000090047f0100000000000000000000000000000000000000000000000000000000000000027f010000000000000000000000000000000000000000000000000000000000000090040383019250612645565b602e7f01000000000000000000000000000000000000000000000000000000000000000284828151811015156125cc57fe5b9060200101517f010000000000000000000000000000000000000000000000000000000000000090047f0100000000000000000000000000000000000000000000000000000000000000027effffffffffffffffffffffffffffffffffffffffffffffffffffffffffffff1916141561264457600191505b5b8080600101915050612396565b60008611156126645785600a0a830292505b8294505050505092915050565b606060008060606000808614156126bf576040805190810160405280600181526020017f300000000000000000000000000000000000000000000000000000000000000081525094506127bf565b8593505b6000841415156126e9578280600101935050600a848115156126e157fe5b0493506126c3565b826040519080825280601f01601f19166020018201604052801561271c5781602001602082028038833980820191505090505b5091506001830390505b6000861415156127bb57600a8681151561273c57fe5b066030017f01000000000000000000000000000000000000000000000000000000000000000282828060019003935081518110151561277757fe5b9060200101907effffffffffffffffffffffffffffffffffffffffffffffffffffffffffffff1916908160001a905350600a868115156127b357fe5b049550612726565b8194505b50505050919050565b6000806127e8731d3b2638a7cc9f2cb3d298a3da7a90b67e5506ed612361565b111561288957731d3b2638a7cc9f2cb3d298a3da7a90b67e5506ed6000806101000a81548173ffffffffffffffffffffffffffffffffffffffff021916908373ffffffffffffffffffffffffffffffffffffffff1602179055506128806040805190810160405280600b81526020017f6574685f6d61696e6e6574000000000000000000000000000000000000000000815250612c57565b60019050612c54565b60006128a873c03a2615d5efaf5f49f60b7bb6583eaec212fdf1612361565b11156129495773c03a2615d5efaf5f49f60b7bb6583eaec212fdf16000806101000a81548173ffffffffffffffffffffffffffffffffffffffff021916908373ffffffffffffffffffffffffffffffffffffffff1602179055506129406040805190810160405280600c81526020017f6574685f726f707374656e330000000000000000000000000000000000000000815250612c57565b60019050612c54565b600061296873b7a07bcf2ba2f2703b24c0691b5278999c59ac7e612361565b1115612a095773b7a07bcf2ba2f2703b24c0691b5278999c59ac7e6000806101000a81548173ffffffffffffffffffffffffffffffffffffffff021916908373ffffffffffffffffffffffffffffffffffffffff160217905550612a006040805190810160405280600981526020017f6574685f6b6f76616e0000000000000000000000000000000000000000000000815250612c57565b60019050612c54565b6000612a2873146500cfd35b22e4a392fe0adc06de1a1368ed48612361565b1115612ac95773146500cfd35b22e4a392fe0adc06de1a1368ed486000806101000a81548173ffffffffffffffffffffffffffffffffffffffff021916908373ffffffffffffffffffffffffffffffffffffffff160217905550612ac06040805190810160405280600b81526020017f6574685f72696e6b656279000000000000000000000000000000000000000000815250612c57565b60019050612c54565b6000612ae8736f485c8bf6fc43ea212e93bbf8ce046c7f1cb475612361565b1115612b4b57736f485c8bf6fc43ea212e93bbf8ce046c7f1cb4756000806101000a81548173ffffffffffffffffffffffffffffffffffffffff021916908373ffffffffffffffffffffffffffffffffffffffff16021790555060019050612c54565b6000612b6a7320e12a1f859b3feae5fb2a0a32c18f5a65555bbf612361565b1115612bcd577320e12a1f859b3feae5fb2a0a32c18f5a65555bbf6000806101000a81548173ffffffffffffffffffffffffffffffffffffffff021916908373ffffffffffffffffffffffffffffffffffffffff16021790555060019050612c54565b6000612bec7351efaf4c8b3c9afbd5ab9f4bbc82784ab6ef8faa612361565b1115612c4f577351efaf4c8b3c9afbd5ab9f4bbc82784ab6ef8faa6000806101000a81548173ffffffffffffffffffffffffffffffffffffffff021916908373ffffffffffffffffffffffffffffffffffffffff16021790555060019050612c54565b600090505b90565b8060029080519060200190612c6d929190612cf1565b5050565b828054600181600116156101000203166002900490600052602060002090601f016020900481019282601f10612cb257805160ff1916838001178555612ce0565b82800160010185558215612ce0579182015b82811115612cdf578251825591602001919060010190612cc4565b5b509050612ced9190612d71565b5090565b828054600181600116156101000203166002900490600052602060002090601f016020900481019282601f10612d3257805160ff1916838001178555612d60565b82800160010185558215612d60579182015b82811115612d5f578251825591602001919060010190612d44565b5b509050612d6d9190612d71565b5090565b612d9391905b80821115612d8f576000816000905550600101612d77565b5090565b905600a165627a7a72305820ce17562aec61ef47e225b1dcdfed81949a845bef379d38285c2e7a5f2451558000295b55524c5d205b276a736f6e2868747470733a2f2f6170692e72616e646f6d2e6f72672f6a736f6e2d7270632f312f696e766f6b65292e726573756c742e72616e646f6d5b2264617461225d272c20275c6e7b226a736f6e727063223a2022322e30222c20226d6574686f64223a202267656e6572617465496e746567657273222c2022706172616d73223a207b20226170694b6579223a2022247b5b646563727970745d2042446742755956547676376536536739472f686447434e6f6b4a314c773334674d51586243624866664d373877794c4c72695777534c5839354b536a485566496e503763544d6d4843336f6b32585a4264306b534579334a7664726371463536476d39576359775a39586b47674c324c33723573326a337a616448454c78725667372b7757767a2b2f54325043793833302f42515a38374c763443737d222c20226e223a20312c20226d696e223a20312c20226d6178223a20",
  "source": "pragma solidity ^0.4.23;\nimport \"./SafeMath.sol\";\nimport \"./oraclize_API.sol\";\n\ncontract Lottery is usingOraclize {\n    /**\n    *   @dev Variables, Mappings & Modifiers\n    */\n    \n    using SafeMath for uint;\n    \n    bytes newProof;\n\n    address public owner;\n    address[] buyerPosition;\n    \n    uint public randomNumber = 0;\n    uint constant gasLimitForOraclize = 175000;\n    uint public softCap;\n    uint public hardCap;\n    uint public villaPrice;\n    uint public ticketPrice;\n    uint public startTime;\n    uint public ticketsPurchased;\n    \n    bool isInitialized = false;\n    \n    mapping (address => uint) ownerTicketCount;\n    mapping (string => address) positionToOwner;\n    mapping (bytes32 => bool) validId;\n    \n    modifier onlyOwner() {\n        require(owner == msg.sender, \"Not owner\");\n        _;\n    }\n    \n    /**\n    *   @dev Events\n    */\n    \n    event lottoInitialized (\n        uint softCap,\n        uint hardCap,\n        uint villaPrice,\n        uint ticketPrice,\n        uint startTime\n    );\n\n    event ticketPurchased (\n        address buyer,\n        uint amount\n    );\n\n    event logNumberReceived (\n        uint number\n    );\n    \n    event logQuery (\n        string description\n    );\n    \n    event winner (\n        address winner\n    );\n\n    /**\n    *   @dev Constructor\n    */\n    \n    constructor() public payable {\n        owner = msg.sender;\n        oraclize_setCustomGasPrice(1000000000 wei);\n        oraclize_setProof(proofType_TLSNotary | proofStorage_IPFS);\n    }\n\n    /**\n    *   @dev Helper/Getter functions\n    */\n\n    function getTicketAmount(address _owner) public view returns (uint) {\n        return (ownerTicketCount[_owner]);\n    }\n\n    function getbuyerPositions() public view returns (address[] memory) {\n        return buyerPosition;\n    }\n    \n    function getRandomNumber() public view returns (uint) {\n        return randomNumber;\n    }\n    \n    /**\n    *   @dev Initialize the lottery with the appropriate values. Only available to contract owner.\n     */\n\n    function initialize(uint256 soft, uint256 hard, uint256 villa, uint ticket, uint256 time) public onlyOwner {\n        require(!isInitialized, \"Lottery is already initialized!\");\n        isInitialized = true;\n        \n        softCap = soft;\n        hardCap = hard;\n        villaPrice = villa;\n        ticketPrice = ticket;\n        startTime = now + time;\n\n        emit lottoInitialized(softCap, hardCap, villaPrice, ticketPrice, startTime);\n        \n    }\n\n    /**\n    *   @dev Give a free first ticket to anyone who has been verified. verification is done off-chain and the owner calls the function. (OnlyOwner)\n     */\n    \n    function freeTicket(address buyer) public onlyOwner {\n        require(isInitialized, \"Lottery is not initialized.\");\n        require(ownerTicketCount[buyer] == 0, \"Buyer already has tickets.\");\n\n        ownerTicketCount[buyer] = ownerTicketCount[buyer].add(1);\n        ticketsPurchased = ticketsPurchased.add(1);\n\n        buyerPosition.push(buyer);\n\n        emit ticketPurchased(buyer, 1);\n    }\n\n    /**\n    *   @dev Buy an amount of tickets based on the amount of ether sent and the ticket price. Available to      all lottery participants.\n     */\n\n    function buyTicket() public payable {\n        require(isInitialized, \"Lottery is not initialized.\");\n        require(msg.value > 0, \"No ether sent.\");\n        \n        uint value = msg.value.div(ticketPrice);\n        ownerTicketCount[msg.sender] = ownerTicketCount[msg.sender].add(value);\n        ticketsPurchased = ticketsPurchased.add(value);\n\n        //instead of having ticket IDs, this design tracks the order in which addresses participate.\n        buyerPosition.push(msg.sender);\n\n        emit ticketPurchased(msg.sender, value);\n    }\n    \n    /**\n     * @dev Oraclize callback function\n    */\n    \n    function __callback(bytes32 qId, string result, bytes proof) public {\n        require(msg.sender == oraclize_cbAddress(), \"Wrong address\");\n        require(validId[qId], \"Invalid ID\");\n        \n        newProof = proof;\n        \n        randomNumber = parseInt(result);\n        \n        emit logNumberReceived(randomNumber);\n        \n        validId[qId] = false;\n    }\n    \n    /**\n     * @dev Oraclize query to random.org. Fetches one random number between 0 and the\n     * total amount of tickets purchased. Returns the value in the callback above and calls the winner. \n    */\n    \n    function queryRandomNumber() public onlyOwner {\n        require(isInitialized, \"Lottery is not initialized\");\n        isInitialized = false;\n        \n        setQuery2();\n        setQuery123();\n        \n        bytes32 qId = oraclize_query(\"nested\", query123);\n        \n        validId[qId] = true;\n        \n        emit logQuery(\"Oraclize query was sent. Standing by for response.\");\n    }\n    \n    /**\n     * @dev Get the lottery winner and return their address.\n    */\n    \n    function getWinner() public view onlyOwner returns (address) {\n        require(randomNumber != 0, \"Random number not yet received!\");\n        \n        uint[] memory ownerTicketAmount = new uint[](buyerPosition.length);\n        \n        for (uint i = 0; i<buyerPosition.length; i++) {\n            ownerTicketAmount[i] = ownerTicketCount[buyerPosition[i]];\n        }\n        \n        uint ticketSum = 0;\n        \n        for (uint p = 0; p<ownerTicketAmount.length; p++) {\n            ticketSum = ticketSum.add(ownerTicketAmount[p]);\n            if (ticketSum >= randomNumber) {\n                return buyerPosition[p];\n            }\n        }\n    }\n    \n    /**\n     * @dev Each part of the Oraclize query to be concatenated.\n    */\n    \n    string query1 = \"[URL] ['json(https://api.random.org/json-rpc/1/invoke).result.random[\\\"data\\\"]', '\\\\n{\\\"jsonrpc\\\": \\\"2.0\\\", \\\"method\\\": \\\"generateIntegers\\\", \\\"params\\\": { \\\"apiKey\\\": \\\"${[decrypt] BDgBuYVTvv7e6Sg9G/hdGCNokJ1Lw34gMQXbCbHffM78wyLLriWwSLX95KSjHUfInP7cTMmHC3ok2XZBd0kSEy3JvdrcqF56Gm9WcYwZ9XkGgL2L3r5s2j3zadHELxrVg7+wWvz+/T2PCy830/BQZ87Lv4Cs}\\\", \\\"n\\\": 1, \\\"min\\\": 1, \\\"max\\\": \";\n    string query2;\n    string query3 = \", \\\"replacement\\\": false${[identity] \\\"}\\\"}, \\\"id\\\": 1${[identity] \\\"}\\\"}']\";\n    \n    string query123;\n    \n    /**\n     * @dev Setters and getters for queries.\n    */\n    \n    function setQuery2() private {\n        query2 = uint2str(ticketsPurchased);\n    }\n    \n    function setQuery123() private {\n        query123 = string(abi.encodePacked(query1, query2, query3));\n    }\n    \n    function getQuery() public view returns(string) {\n        return query123;\n    }\n    \n    /**\n     * @dev Fallback function. Refunds ether to sender unless they are the owner.\n    */\n    \n    function() public payable {\n        if (msg.sender != owner) {\n            revert();\n        }\n    }\n\n\n\n}",
  "sourcePath": "/Users/CryptoWork/Desktop/Russel_Lottery/contracts/Lottery.sol",
  "compiler": {
    "name": "solc",
    "version": "0.4.24+commit.e67f0147.Emscripten.clang"
  },
  "schemaVersion": "2.0.1",
  "updatedAt": "2018-12-16T11:27:59.066Z"
}