{
  "contractName": "Lottery",
  "abi": [
    {
      "constant": true,
      "inputs": [],
      "name": "owner",
      "outputs": [
        {
          "name": "",
          "type": "address"
        }
      ],
      "payable": false,
      "stateMutability": "view",
      "type": "function"
    },
    {
      "inputs": [],
      "payable": false,
      "stateMutability": "nonpayable",
      "type": "constructor"
    },
    {
      "anonymous": false,
      "inputs": [
        {
          "indexed": false,
          "name": "softCap",
          "type": "uint256"
        },
        {
          "indexed": false,
          "name": "hardCap",
          "type": "uint256"
        },
        {
          "indexed": false,
          "name": "villaPrice",
          "type": "uint256"
        },
        {
          "indexed": false,
          "name": "ticketPrice",
          "type": "uint256"
        },
        {
          "indexed": false,
          "name": "startTime",
          "type": "uint256"
        }
      ],
      "name": "lottoInitialized",
      "type": "event"
    },
    {
      "anonymous": false,
      "inputs": [
        {
          "indexed": false,
          "name": "buyer",
          "type": "address"
        },
        {
          "indexed": false,
          "name": "amount",
          "type": "uint256"
        }
      ],
      "name": "ticketPurchased",
      "type": "event"
    },
    {
      "constant": true,
      "inputs": [],
      "name": "getData",
      "outputs": [
        {
          "name": "",
          "type": "uint256"
        },
        {
          "name": "",
          "type": "uint256"
        },
        {
          "name": "",
          "type": "uint256"
        },
        {
          "name": "",
          "type": "uint256"
        },
        {
          "name": "",
          "type": "uint256"
        }
      ],
      "payable": false,
      "stateMutability": "view",
      "type": "function"
    },
    {
      "constant": true,
      "inputs": [],
      "name": "getTicketPrice",
      "outputs": [
        {
          "name": "",
          "type": "uint256"
        }
      ],
      "payable": false,
      "stateMutability": "view",
      "type": "function"
    },
    {
      "constant": true,
      "inputs": [],
      "name": "getTicketAmount",
      "outputs": [
        {
          "name": "",
          "type": "uint256"
        }
      ],
      "payable": false,
      "stateMutability": "view",
      "type": "function"
    },
    {
      "constant": true,
      "inputs": [
        {
          "name": "buyer",
          "type": "address"
        }
      ],
      "name": "getBuyerPositions",
      "outputs": [
        {
          "name": "",
          "type": "uint256[]"
        }
      ],
      "payable": false,
      "stateMutability": "view",
      "type": "function"
    },
    {
      "constant": false,
      "inputs": [
        {
          "name": "soft",
          "type": "uint256"
        },
        {
          "name": "hard",
          "type": "uint256"
        },
        {
          "name": "villa",
          "type": "uint256"
        },
        {
          "name": "ticket",
          "type": "uint256"
        },
        {
          "name": "time",
          "type": "uint256"
        }
      ],
      "name": "initialize",
      "outputs": [],
      "payable": false,
      "stateMutability": "nonpayable",
      "type": "function"
    },
    {
      "constant": false,
      "inputs": [],
      "name": "buyTicket",
      "outputs": [],
      "payable": true,
      "stateMutability": "payable",
      "type": "function"
    }
  ],
  "bytecode": "0x608060405234801561001057600080fd5b50336000806101000a81548173ffffffffffffffffffffffffffffffffffffffff021916908373ffffffffffffffffffffffffffffffffffffffff16021790555061075d806100606000396000f300608060405260043610610083576000357c0100000000000000000000000000000000000000000000000000000000900463ffffffff1680632eea1290146100885780633bc5de30146101205780636cf699581461016757806387bb7ae0146101925780638da5cb5b146101bd578063dcbab60814610214578063edca914c14610269575b600080fd5b34801561009457600080fd5b506100c9600480360381019080803573ffffffffffffffffffffffffffffffffffffffff169060200190929190505050610273565b6040518080602001828103825283818151815260200191508051906020019060200280838360005b8381101561010c5780820151818401526020810190506100f1565b505050509050019250505060405180910390f35b34801561012c57600080fd5b50610135610341565b604051808681526020018581526020018481526020018381526020018281526020019550505050505060405180910390f35b34801561017357600080fd5b5061017c610369565b6040518082815260200191505060405180910390f35b34801561019e57600080fd5b506101a76103b0565b6040518082815260200191505060405180910390f35b3480156101c957600080fd5b506101d26103ba565b604051808273ffffffffffffffffffffffffffffffffffffffff1673ffffffffffffffffffffffffffffffffffffffff16815260200191505060405180910390f35b34801561022057600080fd5b5061026760048036038101908080359060200190929190803590602001909291908035906020019092919080359060200190929190803590602001909291905050506103df565b005b610271610530565b005b60608060008090505b600280549050811015610339578373ffffffffffffffffffffffffffffffffffffffff166002828154811015156102af57fe5b9060005260206000200160009054906101000a900473ffffffffffffffffffffffffffffffffffffffff1673ffffffffffffffffffffffffffffffffffffffff16141561032c5780828281518110151561030557fe5b906020019060200201818152505060016002805490500381141561032b5781925061033a565b5b808060010191505061027c565b5b5050919050565b6000806000806000600354600454600554600654600754945094509450945094509091929394565b6000600160003373ffffffffffffffffffffffffffffffffffffffff1673ffffffffffffffffffffffffffffffffffffffff16815260200190815260200160002054905090565b6000600654905090565b6000809054906101000a900473ffffffffffffffffffffffffffffffffffffffff1681565b3373ffffffffffffffffffffffffffffffffffffffff166000809054906101000a900473ffffffffffffffffffffffffffffffffffffffff1673ffffffffffffffffffffffffffffffffffffffff161415156104a3576040517f08c379a00000000000000000000000000000000000000000000000000000000081526004018080602001828103825260098152602001807f4e6f74206f776e6572000000000000000000000000000000000000000000000081525060200191505060405180910390fd5b846003819055508360048190555082600581905550816006819055508042016007819055507f7835784bf717bb333bfdc4e8ff60b9837afa3b8d61bb6df5a8539dcddedfa21e600354600454600554600654600754604051808681526020018581526020018481526020018381526020018281526020019550505050505060405180910390a15050505050565b600080341115156105a9576040517f08c379a000000000000000000000000000000000000000000000000000000000815260040180806020018281038252600d8152602001807f4e6f2065746865722073656e740000000000000000000000000000000000000081525060200191505060405180910390fd5b3490506105c16006548261070790919063ffffffff16565b600160003373ffffffffffffffffffffffffffffffffffffffff1673ffffffffffffffffffffffffffffffffffffffff168152602001908152602001600020600082825401925050819055506106226006548261070790919063ffffffff16565b60086000828254019250508190555060023390806001815401808255809150509060018203906000526020600020016000909192909190916101000a81548173ffffffffffffffffffffffffffffffffffffffff021916908373ffffffffffffffffffffffffffffffffffffffff160217905550507f80f8cde1dbefb5cb9fab659a41081b98fa88b0e4879ec7f6c870d8c8129e27e033600854604051808373ffffffffffffffffffffffffffffffffffffffff1673ffffffffffffffffffffffffffffffffffffffff1681526020018281526020019250505060405180910390a150565b60008060008311151561071957600080fd5b828481151561072457fe5b04905080915050929150505600a165627a7a72305820ccc068c303211af425bf8c5ec91e6501a969c5ea9a995c9ea8e48d24a4b5f9330029",
  "source": "pragma solidity ^0.4.23;\nimport \"./SafeMath.sol\";\n\ncontract Lottery {\n    using SafeMath for uint;\n\n    address public owner;\n\n    event lottoInitialized (\n        uint softCap,\n        uint hardCap,\n        uint villaPrice,\n        uint ticketPrice,\n        uint startTime\n    );\n\n    event ticketPurchased (\n        address buyer,\n        uint amount\n    );\n\n    mapping (address => uint) ownerTicketCount;\n\n    address[] buyerPosition;\n\n    uint softCap;\n    uint hardCap;\n    uint villaPrice;\n    uint ticketPrice;\n    uint startTime;\n\n    uint ticketsPurchased;\n\n    constructor() public {\n        owner = msg.sender;\n    }\n\n    modifier onlyOwner() {\n        require(owner == msg.sender, \"Not owner\");\n        _;\n    }\n\n    /**\n    *   @dev Helper/Getter functions\n    */\n\n    function getData() public view returns (uint, uint, uint, uint, uint) {\n        return (softCap, hardCap, villaPrice, ticketPrice, startTime);\n    }\n\n    function getTicketPrice() public view returns (uint) {\n        return ticketPrice;\n    }\n\n    function getTicketAmount() public view returns (uint) {\n        return (ownerTicketCount[msg.sender]);\n    }\n\n    function getBuyerPositions(address buyer) public view returns (uint[] memory) {\n        uint[] memory positions;\n\n        for (uint i = 0; i < buyerPosition.length; i++) {\n            if (buyerPosition[i] == buyer) {\n                positions[i] = i;\n                if (i == buyerPosition.length - 1) {\n                    return positions;\n                }\n            }\n        } \n    }\n\n    \n    /**\n    *   @dev Initialize the lottery with the appropriate values. Only available to contract owner.\n     */\n\n    function initialize(uint256 soft, uint256 hard, uint256 villa, uint ticket, uint256 time) public onlyOwner {\n\n        softCap = soft;\n        hardCap = hard;\n        villaPrice = villa;\n        ticketPrice = ticket;\n        startTime = now + time;\n\n        emit lottoInitialized(softCap, hardCap, villaPrice, ticketPrice, startTime);\n    }\n\n    /**\n    *   @dev Buy an amount of tickets based on the amount of ether sent and the ticket price. Available to      all lottery participants.\n     */\n\n    function buyTicket() public payable {\n        require(msg.value > 0, \"No ether sent\");\n\n        uint value = msg.value;\n        ownerTicketCount[msg.sender] += value.div(ticketPrice);\n        ticketsPurchased += value.div(ticketPrice); \n\n        //instead of having ticket IDs, this design tracks the order in which addresses participate.\n        buyerPosition.push(msg.sender);\n\n        emit ticketPurchased(msg.sender, ticketsPurchased);\n    }\n\n}",
  "sourcePath": "/Users/CryptoWork/Desktop/Russel_Lottery/contracts/Lottery.sol",
  "compiler": {
    "name": "solc",
    "version": "0.4.24+commit.e67f0147.Emscripten.clang"
  },
  "schemaVersion": "2.0.1",
  "updatedAt": "2018-11-25T07:00:50.808Z"
}