{
  "contractName": "Lottery",
  "abi": [
    {
      "constant": true,
      "inputs": [],
      "name": "ticketPrice",
      "outputs": [
        {
          "name": "",
          "type": "uint256"
        }
      ],
      "payable": false,
      "stateMutability": "view",
      "type": "function"
    },
    {
      "constant": true,
      "inputs": [],
      "name": "playerCount",
      "outputs": [
        {
          "name": "",
          "type": "uint256"
        }
      ],
      "payable": false,
      "stateMutability": "view",
      "type": "function"
    },
    {
      "constant": true,
      "inputs": [],
      "name": "isInitialized",
      "outputs": [
        {
          "name": "",
          "type": "bool"
        }
      ],
      "payable": false,
      "stateMutability": "view",
      "type": "function"
    },
    {
      "constant": true,
      "inputs": [],
      "name": "startTime",
      "outputs": [
        {
          "name": "",
          "type": "uint256"
        }
      ],
      "payable": false,
      "stateMutability": "view",
      "type": "function"
    },
    {
      "constant": true,
      "inputs": [],
      "name": "testValue",
      "outputs": [
        {
          "name": "",
          "type": "uint256"
        }
      ],
      "payable": false,
      "stateMutability": "view",
      "type": "function"
    },
    {
      "constant": true,
      "inputs": [],
      "name": "owner",
      "outputs": [
        {
          "name": "",
          "type": "address"
        }
      ],
      "payable": false,
      "stateMutability": "view",
      "type": "function"
    },
    {
      "constant": true,
      "inputs": [],
      "name": "softCap",
      "outputs": [
        {
          "name": "",
          "type": "uint256"
        }
      ],
      "payable": false,
      "stateMutability": "view",
      "type": "function"
    },
    {
      "constant": true,
      "inputs": [],
      "name": "ticketsPurchased",
      "outputs": [
        {
          "name": "",
          "type": "uint256"
        }
      ],
      "payable": false,
      "stateMutability": "view",
      "type": "function"
    },
    {
      "constant": true,
      "inputs": [],
      "name": "hardCap",
      "outputs": [
        {
          "name": "",
          "type": "uint256"
        }
      ],
      "payable": false,
      "stateMutability": "view",
      "type": "function"
    },
    {
      "inputs": [],
      "payable": true,
      "stateMutability": "payable",
      "type": "constructor"
    },
    {
      "payable": true,
      "stateMutability": "payable",
      "type": "fallback"
    },
    {
      "anonymous": false,
      "inputs": [
        {
          "indexed": false,
          "name": "softCap",
          "type": "uint256"
        },
        {
          "indexed": false,
          "name": "hardCap",
          "type": "uint256"
        },
        {
          "indexed": false,
          "name": "ticketPrice",
          "type": "uint256"
        },
        {
          "indexed": false,
          "name": "startTime",
          "type": "uint256"
        }
      ],
      "name": "lottoInitialized",
      "type": "event"
    },
    {
      "anonymous": false,
      "inputs": [
        {
          "indexed": false,
          "name": "buyer",
          "type": "address"
        },
        {
          "indexed": false,
          "name": "amount",
          "type": "uint256"
        }
      ],
      "name": "ticketPurchased",
      "type": "event"
    },
    {
      "anonymous": false,
      "inputs": [
        {
          "indexed": false,
          "name": "number",
          "type": "uint256"
        }
      ],
      "name": "logNumberReceived",
      "type": "event"
    },
    {
      "anonymous": false,
      "inputs": [
        {
          "indexed": false,
          "name": "description",
          "type": "string"
        }
      ],
      "name": "logQuery",
      "type": "event"
    },
    {
      "anonymous": false,
      "inputs": [
        {
          "indexed": false,
          "name": "winner",
          "type": "address"
        }
      ],
      "name": "winner",
      "type": "event"
    },
    {
      "constant": true,
      "inputs": [
        {
          "name": "_owner",
          "type": "address"
        }
      ],
      "name": "getTicketAmount",
      "outputs": [
        {
          "name": "",
          "type": "uint256"
        }
      ],
      "payable": false,
      "stateMutability": "view",
      "type": "function"
    },
    {
      "constant": true,
      "inputs": [],
      "name": "getValues",
      "outputs": [
        {
          "name": "",
          "type": "uint256"
        },
        {
          "name": "",
          "type": "uint256"
        },
        {
          "name": "",
          "type": "uint256"
        }
      ],
      "payable": false,
      "stateMutability": "view",
      "type": "function"
    },
    {
      "constant": false,
      "inputs": [
        {
          "name": "soft",
          "type": "uint256"
        },
        {
          "name": "hard",
          "type": "uint256"
        },
        {
          "name": "ticket",
          "type": "uint256"
        },
        {
          "name": "time",
          "type": "uint256"
        }
      ],
      "name": "initialize",
      "outputs": [],
      "payable": false,
      "stateMutability": "nonpayable",
      "type": "function"
    },
    {
      "constant": false,
      "inputs": [
        {
          "name": "buyer",
          "type": "address"
        }
      ],
      "name": "freeTicket",
      "outputs": [],
      "payable": false,
      "stateMutability": "nonpayable",
      "type": "function"
    },
    {
      "constant": false,
      "inputs": [],
      "name": "buyTicket",
      "outputs": [],
      "payable": true,
      "stateMutability": "payable",
      "type": "function"
    },
    {
      "constant": false,
      "inputs": [
        {
          "name": "myid",
          "type": "bytes32"
        },
        {
          "name": "result",
          "type": "string"
        }
      ],
      "name": "__callback",
      "outputs": [],
      "payable": false,
      "stateMutability": "nonpayable",
      "type": "function"
    },
    {
      "constant": false,
      "inputs": [
        {
          "name": "qId",
          "type": "bytes32"
        },
        {
          "name": "result",
          "type": "string"
        },
        {
          "name": "proof",
          "type": "bytes"
        }
      ],
      "name": "__callback",
      "outputs": [],
      "payable": false,
      "stateMutability": "nonpayable",
      "type": "function"
    },
    {
      "constant": false,
      "inputs": [],
      "name": "drawWinner",
      "outputs": [],
      "payable": false,
      "stateMutability": "nonpayable",
      "type": "function"
    },
    {
      "constant": true,
      "inputs": [],
      "name": "getQuery",
      "outputs": [
        {
          "name": "",
          "type": "string"
        }
      ],
      "payable": false,
      "stateMutability": "view",
      "type": "function"
    },
    {
      "constant": false,
      "inputs": [],
      "name": "withdraw",
      "outputs": [],
      "payable": false,
      "stateMutability": "nonpayable",
      "type": "function"
    }
  ],
  "bytecode": "0x600f805460ff1916905561020060405261015f608081815290620028d660a03980516200003591601291602090910190620009a4565b50608060405190810160405280604381526020017f2c20227265706c6163656d656e74223a2066616c7365247b5b6964656e74697481526020017f795d20227d227d2c20226964223a2031247b5b6964656e746974795d20227d2281526020017f7d275d000000000000000000000000000000000000000000000000000000000081525060149080519060200190620000d0929190620009a4565b5060068054600160a060020a03191633179055600160085562000100633b9aca006401000000006200013a810204565b620001347f11000000000000000000000000000000000000000000000000000000000000006401000000006200037a810204565b62000a46565b600054600160a060020a031615806200017057506000546200016e90600160a060020a0316640100000000620005bf810204565b155b156200018d576200018b6000640100000000620005c3810204565b505b6000809054906101000a9004600160a060020a0316600160a060020a03166338cc48316040518163ffffffff167c0100000000000000000000000000000000000000000000000000000000028152600401602060405180830381600087803b158015620001f957600080fd5b505af11580156200020e573d6000803e3d6000fd5b505050506040513d60208110156200022557600080fd5b5051600154600160a060020a03908116911614620002f7576000809054906101000a9004600160a060020a0316600160a060020a03166338cc48316040518163ffffffff167c0100000000000000000000000000000000000000000000000000000000028152600401602060405180830381600087803b158015620002a957600080fd5b505af1158015620002be573d6000803e3d6000fd5b505050506040513d6020811015620002d557600080fd5b505160018054600160a060020a031916600160a060020a039092169190911790555b600154604080517fca6ad1e4000000000000000000000000000000000000000000000000000000008152600481018490529051600160a060020a039092169163ca6ad1e49160248082019260009290919082900301818387803b1580156200035e57600080fd5b505af115801562000373573d6000803e3d6000fd5b5050505050565b600054600160a060020a03161580620003b05750600054620003ae90600160a060020a0316640100000000620005bf810204565b155b15620003cd57620003cb6000640100000000620005c3810204565b505b6000809054906101000a9004600160a060020a0316600160a060020a03166338cc48316040518163ffffffff167c0100000000000000000000000000000000000000000000000000000000028152600401602060405180830381600087803b1580156200043957600080fd5b505af11580156200044e573d6000803e3d6000fd5b505050506040513d60208110156200046557600080fd5b5051600154600160a060020a0390811691161462000537576000809054906101000a9004600160a060020a0316600160a060020a03166338cc48316040518163ffffffff167c0100000000000000000000000000000000000000000000000000000000028152600401602060405180830381600087803b158015620004e957600080fd5b505af1158015620004fe573d6000803e3d6000fd5b505050506040513d60208110156200051557600080fd5b505160018054600160a060020a031916600160a060020a039092169190911790555b600154604080517f688dcfd70000000000000000000000000000000000000000000000000000000081527fff00000000000000000000000000000000000000000000000000000000000000841660048201529051600160a060020a039092169163688dcfd79160248082019260009290919082900301818387803b1580156200035e57600080fd5b3b90565b6000620005d8640100000000620005de810204565b92915050565b60008062000609731d3b2638a7cc9f2cb3d298a3da7a90b67e5506ed640100000000620005bf810204565b1115620006875760008054600160a060020a031916731d3b2638a7cc9f2cb3d298a3da7a90b67e5506ed17905560408051808201909152600b81527f6574685f6d61696e6e657400000000000000000000000000000000000000000060208201526200067e906401000000006200098b810204565b50600162000988565b6000620006b173c03a2615d5efaf5f49f60b7bb6583eaec212fdf1640100000000620005bf810204565b1115620007265760008054600160a060020a03191673c03a2615d5efaf5f49f60b7bb6583eaec212fdf117905560408051808201909152600c81527f6574685f726f707374656e33000000000000000000000000000000000000000060208201526200067e906401000000006200098b810204565b60006200075073b7a07bcf2ba2f2703b24c0691b5278999c59ac7e640100000000620005bf810204565b1115620007c55760008054600160a060020a03191673b7a07bcf2ba2f2703b24c0691b5278999c59ac7e17905560408051808201909152600981527f6574685f6b6f76616e000000000000000000000000000000000000000000000060208201526200067e906401000000006200098b810204565b6000620007ef73146500cfd35b22e4a392fe0adc06de1a1368ed48640100000000620005bf810204565b1115620008645760008054600160a060020a03191673146500cfd35b22e4a392fe0adc06de1a1368ed4817905560408051808201909152600b81527f6574685f72696e6b65627900000000000000000000000000000000000000000060208201526200067e906401000000006200098b810204565b60006200088e736f485c8bf6fc43ea212e93bbf8ce046c7f1cb475640100000000620005bf810204565b1115620008c4575060008054600160a060020a031916736f485c8bf6fc43ea212e93bbf8ce046c7f1cb475179055600162000988565b6000620008ee7320e12a1f859b3feae5fb2a0a32c18f5a65555bbf640100000000620005bf810204565b111562000924575060008054600160a060020a0319167320e12a1f859b3feae5fb2a0a32c18f5a65555bbf179055600162000988565b60006200094e7351efaf4c8b3c9afbd5ab9f4bbc82784ab6ef8faa640100000000620005bf810204565b111562000984575060008054600160a060020a0319167351efaf4c8b3c9afbd5ab9f4bbc82784ab6ef8faa179055600162000988565b5060005b90565b8051620009a0906002906020840190620009a4565b5050565b828054600181600116156101000203166002900490600052602060002090601f016020900481019282601f10620009e757805160ff191683800117855562000a17565b8280016001018555821562000a17579182015b8281111562000a17578251825591602001919060010190620009fa565b5062000a2592915062000a29565b5090565b6200098891905b8082111562000a25576000815560010162000a30565b611e808062000a566000396000f3006080604052600436106100ed5763ffffffff60e060020a6000350416631209b1f6811461010657806319eb4a901461012d57806327dc297e14610160578063302bcc57146101be57806338bbfa50146101d3578063392e53cd1461026f5780633ccfd60b146102985780633d0bd180146102ad57806360a2da44146102ce57806378bd2917146102ef57806378e97925146103105780638af5de72146103255780638da5cb5b1461033a578063906a26e01461036b57806390a7ba5b146103805780639c742f9314610395578063b2185bb11461041f578063edca914c14610434578063fb86a4041461043c575b600654600160a060020a0316331461010457600080fd5b005b34801561011257600080fd5b5061011b610451565b60408051918252519081900360200190f35b34801561013957600080fd5b50610142610457565b60408051938452602084019290925282820152519081900360600190f35b34801561016c57600080fd5b5060408051602060046024803582810135601f81018590048502860185019096528585526101049583359536956044949193909101919081908401838280828437509497506104659650505050505050565b3480156101ca57600080fd5b5061011b610485565b3480156101df57600080fd5b5060408051602060046024803582810135601f810185900485028601850190965285855261010495833595369560449491939091019190819084018382808284375050604080516020601f89358b018035918201839004830284018301909452808352979a99988101979196509182019450925082915084018382808284375094975061048b9650505050505050565b34801561027b57600080fd5b50610284610611565b604080519115158252519081900360200190f35b3480156102a457600080fd5b5061010461061a565b3480156102b957600080fd5b50610104600160a060020a036004351661069a565b3480156102da57600080fd5b506101046004356024356044356064356108b3565b3480156102fb57600080fd5b5061011b600160a060020a03600435166109cf565b34801561031c57600080fd5b5061011b6109ea565b34801561033157600080fd5b5061011b6109f0565b34801561034657600080fd5b5061034f6109f6565b60408051600160a060020a039092168252519081900360200190f35b34801561037757600080fd5b5061011b610a05565b34801561038c57600080fd5b5061011b610a0b565b3480156103a157600080fd5b506103aa610a11565b6040805160208082528351818301528351919283929083019185019080838360005b838110156103e45781810151838201526020016103cc565b50505050905090810190601f1680156104115780820380516001836020036101000a031916815260200191505b509250505060405180910390f35b34801561042b57600080fd5b50610104610aa8565b610104610ce1565b34801561044857600080fd5b5061011b610e8e565b600b5481565b600954600a54600c54909192565b604080516000815260208101909152610481908390839061048b565b5050565b600e5481565b6000610495610e94565b600160a060020a031633146104f4576040805160e560020a62461bcd02815260206004820152600d60248201527f57726f6e67206164647265737300000000000000000000000000000000000000604482015290519081900360640190fd5b60008481526011602052604090205460ff16151561055c576040805160e560020a62461bcd02815260206004820152600a60248201527f496e76616c696420494400000000000000000000000000000000000000000000604482015290519081900360640190fd5b815161056f906005906020850190611d73565b5061057983611085565b6040805182815290519192507f4300e48b36cdb4a1d5578d2ba489ffe9e709e371f53a7d2923a9f7cecf11c5fc919081900360200190a16000848152601160205260409020805460ff191690557f2ad95786da06c547c63d0a70ed6f06fcc5af1374aaa87963d5ba8ed02a2aa7d76105f082611098565b60408051600160a060020a039092168252519081900360200190a150505050565b600f5460ff1681565b600654600160a060020a0316331461066a576040805160e560020a62461bcd0281526020600482015260096024820152600080516020611e35833981519152604482015290519081900360640190fd5b6040513390303180156108fc02916000818181858888f19350505050158015610697573d6000803e3d6000fd5b50565b600654600160a060020a031633146106ea576040805160e560020a62461bcd0281526020600482015260096024820152600080516020611e35833981519152604482015290519081900360640190fd5b600f5460ff161515610746576040805160e560020a62461bcd02815260206004820152601b60248201527f4c6f7474657279206973206e6f7420696e697469616c697a65642e0000000000604482015290519081900360640190fd5b600160a060020a038116600090815260106020526040902054156107b4576040805160e560020a62461bcd02815260206004820152601a60248201527f427579657220616c726561647920686173207469636b6574732e000000000000604482015290519081900360640190fd5b600e546107c890600163ffffffff6111c316565b600e55600160a060020a0381166000908152601060205260409020546107f590600163ffffffff6111c316565b600160a060020a038216600090815260106020526040902055600d5461082290600163ffffffff6111c316565b600d5560078054600180820183556000929092527fa66cc928b5edb82af9bd49922954155ab7b0942694bea4ce44661d9a8736c688018054600160a060020a031916600160a060020a03841690811790915560408051918252602082019290925281517f80f8cde1dbefb5cb9fab659a41081b98fa88b0e4879ec7f6c870d8c8129e27e0929181900390910190a150565b600654600160a060020a03163314610903576040805160e560020a62461bcd0281526020600482015260096024820152600080516020611e35833981519152604482015290519081900360640190fd5b600f5460ff161561095e576040805160e560020a62461bcd02815260206004820152601f60248201527f4c6f747465727920697320616c726561647920696e697469616c697a65642100604482015290519081900360640190fd5b600f805460ff191660011790556009849055600a839055600b829055428101600c81905560408051868152602081018690528082018590526060810192909252517f99258bd20025af338b1f35533a9c6d639429c4db4affbb1e3882318e8d099ff49181900360800190a150505050565b600160a060020a031660009081526010602052604090205490565b600c5481565b60085481565b600654600160a060020a031681565b60095481565b600d5481565b60158054604080516020601f6002600019610100600188161502019095169490940493840181900481028201810190925282815260609390929091830182828015610a9d5780601f10610a7257610100808354040283529160200191610a9d565b820191906000526020600020905b815481529060010190602001808311610a8057829003601f168201915b505050505090505b90565b600654600090600160a060020a03163314610afb576040805160e560020a62461bcd0281526020600482015260096024820152600080516020611e35833981519152604482015290519081900360640190fd5b600f5460ff161515610b57576040805160e560020a62461bcd02815260206004820152601a60248201527f4c6f7474657279206973206e6f7420696e697469616c697a6564000000000000604482015290519081900360640190fd5b600f805460ff19169055610b696111e0565b610b716111ff565b604080518082018252600681527f6e65737465640000000000000000000000000000000000000000000000000000602080830191909152601580548451601f60026000196101006001861615020190931692909204918201849004840281018401909552808552610c389492830182828015610c2e5780601f10610c0357610100808354040283529160200191610c2e565b820191906000526020600020905b815481529060010190602001808311610c1157829003601f168201915b5050505050611340565b600081815260116020908152604091829020805460ff1916600117905581518181526032918101919091527f4f7261636c697a65207175657279207761732073656e742e205374616e64696e818301527f6720627920666f7220726573706f6e73652e0000000000000000000000000000606082015290519192507f18d7185daabaec12aeca0c54a5d3a37eda3c6bb0b360ef3688245118e7a45dfd919081900360800190a150565b600f5460009060ff161515610d40576040805160e560020a62461bcd02815260206004820152601b60248201527f4c6f7474657279206973206e6f7420696e697469616c697a65642e0000000000604482015290519081900360640190fd5b60003411610d98576040805160e560020a62461bcd02815260206004820152600e60248201527f4e6f2065746865722073656e742e000000000000000000000000000000000000604482015290519081900360640190fd5b600b54610dac90349063ffffffff61173116565b33600090815260106020526040902054909150610dcf908263ffffffff6111c316565b33600090815260106020526040902055600d54610df2908263ffffffff6111c316565b600d55600e54610e0990600163ffffffff6111c316565b600e55600780546001810182556000919091527fa66cc928b5edb82af9bd49922954155ab7b0942694bea4ce44661d9a8736c688018054600160a060020a03191633908117909155604080519182526020820183905280517f80f8cde1dbefb5cb9fab659a41081b98fa88b0e4879ec7f6c870d8c8129e27e09281900390910190a150565b600a5481565b60008054600160a060020a03161580610ebf5750600054610ebd90600160a060020a0316611754565b155b15610ed057610ece6000611758565b505b6000809054906101000a9004600160a060020a0316600160a060020a03166338cc48316040518163ffffffff1660e060020a028152600401602060405180830381600087803b158015610f2257600080fd5b505af1158015610f36573d6000803e3d6000fd5b505050506040513d6020811015610f4c57600080fd5b5051600154600160a060020a03908116911614611001576000809054906101000a9004600160a060020a0316600160a060020a03166338cc48316040518163ffffffff1660e060020a028152600401602060405180830381600087803b158015610fb557600080fd5b505af1158015610fc9573d6000803e3d6000fd5b505050506040513d6020811015610fdf57600080fd5b505160018054600160a060020a031916600160a060020a039092169190911790555b600160009054906101000a9004600160a060020a0316600160a060020a031663c281d19e6040518163ffffffff1660e060020a028152600401602060405180830381600087803b15801561105457600080fd5b505af1158015611068573d6000803e3d6000fd5b505050506040513d602081101561107e57600080fd5b5051905090565b6000611092826000611762565b92915050565b600060606000806000806007805490506040519080825280602002602001820160405280156110d1578160200160208202803883390190505b509450600093505b60075484101561113e57601060006007868154811015156110f657fe5b6000918252602080832090910154600160a060020a03168352820192909252604001902054855186908690811061112957fe5b602090810290910101526001909301926110d9565b5060009150815b84518110156111b157611176858281518110151561115f57fe5b60209081029091010151849063ffffffff6111c316565b92508683106111a957600780548290811061118d57fe5b600091825260209091200154600160a060020a031691506111b1565b600101611145565b6111b96118d4565b5095945050505050565b6000828201838110156111d557600080fd5b8091505b5092915050565b6111eb600d54611949565b805161069791601391602090910190611d73565b60126013601460405160200180848054600181600116156101000203166002900480156112635780601f10611241576101008083540402835291820191611263565b820191906000526020600020905b81548152906001019060200180831161124f575b5050838054600181600116156101000203166002900480156112bc5780601f1061129a5761010080835404028352918201916112bc565b820191906000526020600020905b8154815290600101906020018083116112a8575b5050828054600181600116156101000203166002900480156113155780601f106112f3576101008083540402835291820191611315565b820191906000526020600020905b815481529060010190602001808311611301575b5050935050505060405160208183030381529060405260159080519060200190610697929190611d73565b600080548190600160a060020a0316158061136d575060005461136b90600160a060020a0316611754565b155b1561137e5761137c6000611758565b505b6000809054906101000a9004600160a060020a0316600160a060020a03166338cc48316040518163ffffffff1660e060020a028152600401602060405180830381600087803b1580156113d057600080fd5b505af11580156113e4573d6000803e3d6000fd5b505050506040513d60208110156113fa57600080fd5b5051600154600160a060020a039081169116146114af576000809054906101000a9004600160a060020a0316600160a060020a03166338cc48316040518163ffffffff1660e060020a028152600401602060405180830381600087803b15801561146357600080fd5b505af1158015611477573d6000803e3d6000fd5b505050506040513d602081101561148d57600080fd5b505160018054600160a060020a031916600160a060020a039092169190911790555b6001546040517f524f3889000000000000000000000000000000000000000000000000000000008152602060048201818152875160248401528751600160a060020a039094169363524f388993899383926044909201919085019080838360005b83811015611528578181015183820152602001611510565b50505050905090810190601f1680156115555780820380516001836020036101000a031916815260200191505b5092505050602060405180830381600087803b15801561157457600080fd5b505af1158015611588573d6000803e3d6000fd5b505050506040513d602081101561159e57600080fd5b50519050670de0b6b3a764000062030d403a02018111156115c257600091506111d9565b6001546040517fadf59f99000000000000000000000000000000000000000000000000000000008152600060048201818152606060248401908152885160648501528851600160a060020a039095169463adf59f99948794938b938b939192909160448201916084019060208701908083838b5b8381101561164e578181015183820152602001611636565b50505050905090810190601f16801561167b5780820380516001836020036101000a031916815260200191505b50838103825284518152845160209182019186019080838360005b838110156116ae578181015183820152602001611696565b50505050905090810190601f1680156116db5780820380516001836020036101000a031916815260200191505b50955050505050506020604051808303818588803b1580156116fc57600080fd5b505af1158015611710573d6000803e3d6000fd5b50505050506040513d602081101561172757600080fd5b5051949350505050565b60008080831161174057600080fd5b828481151561174b57fe5b04949350505050565b3b90565b6000611092611a3c565b6000828180805b83518110156118b75783517f3000000000000000000000000000000000000000000000000000000000000000908590839081106117a257fe5b90602001015160f860020a900460f860020a02600160f860020a03191610158015611818575083517f3900000000000000000000000000000000000000000000000000000000000000908590839081106117f857fe5b90602001015160f860020a900460f860020a02600160f860020a03191611155b156118715781156118375785151561182f576118b7565b600019909501945b600a830292506030848281518110151561184d57fe5b90602001015160f860020a900460f860020a0260f860020a900403830192506118af565b838181518110151561187f57fe5b90602001015160f860020a900460f860020a02600160f860020a031916602e60f860020a0214156118af57600191505b600101611769565b60008611156118c95785600a0a830292505b509095945050505050565b6000600d8190556009819055600a819055600b819055600c8190555b60075481101561193c5760006010600060078481548110151561190f57fe5b6000918252602080832090910154600160a060020a031683528201929092526040019020556001016118f0565b6000610481600782611df1565b606060008082818515156119925760408051808201909152600181527f300000000000000000000000000000000000000000000000000000000000000060208201529450611a33565b8593505b83156119ad57600190920191600a84049350611996565b826040519080825280601f01601f1916602001820160405280156119db578160200160208202803883390190505b5091505060001982015b8515611a2f57815160001982019160f860020a6030600a8a060102918491908110611a0c57fe5b906020010190600160f860020a031916908160001a905350600a860495506119e5565b8194505b50505050919050565b600080611a5c731d3b2638a7cc9f2cb3d298a3da7a90b67e5506ed611754565b1115611acd5760008054600160a060020a031916731d3b2638a7cc9f2cb3d298a3da7a90b67e5506ed17905560408051808201909152600b81527f6574685f6d61696e6e65740000000000000000000000000000000000000000006020820152611ac590611d64565b506001610aa5565b6000611aec73c03a2615d5efaf5f49f60b7bb6583eaec212fdf1611754565b1115611b555760008054600160a060020a03191673c03a2615d5efaf5f49f60b7bb6583eaec212fdf117905560408051808201909152600c81527f6574685f726f707374656e3300000000000000000000000000000000000000006020820152611ac590611d64565b6000611b7473b7a07bcf2ba2f2703b24c0691b5278999c59ac7e611754565b1115611bdd5760008054600160a060020a03191673b7a07bcf2ba2f2703b24c0691b5278999c59ac7e17905560408051808201909152600981527f6574685f6b6f76616e00000000000000000000000000000000000000000000006020820152611ac590611d64565b6000611bfc73146500cfd35b22e4a392fe0adc06de1a1368ed48611754565b1115611c655760008054600160a060020a03191673146500cfd35b22e4a392fe0adc06de1a1368ed4817905560408051808201909152600b81527f6574685f72696e6b6562790000000000000000000000000000000000000000006020820152611ac590611d64565b6000611c84736f485c8bf6fc43ea212e93bbf8ce046c7f1cb475611754565b1115611cb8575060008054600160a060020a031916736f485c8bf6fc43ea212e93bbf8ce046c7f1cb4751790556001610aa5565b6000611cd77320e12a1f859b3feae5fb2a0a32c18f5a65555bbf611754565b1115611d0b575060008054600160a060020a0319167320e12a1f859b3feae5fb2a0a32c18f5a65555bbf1790556001610aa5565b6000611d2a7351efaf4c8b3c9afbd5ab9f4bbc82784ab6ef8faa611754565b1115611d5e575060008054600160a060020a0319167351efaf4c8b3c9afbd5ab9f4bbc82784ab6ef8faa1790556001610aa5565b50600090565b80516104819060029060208401905b828054600181600116156101000203166002900490600052602060002090601f016020900481019282601f10611db457805160ff1916838001178555611de1565b82800160010185558215611de1579182015b82811115611de1578251825591602001919060010190611dc6565b50611ded929150611e1a565b5090565b815481835581811115611e1557600083815260209020611e15918101908301611e1a565b505050565b610aa591905b80821115611ded5760008155600101611e2056004e6f74206f776e65720000000000000000000000000000000000000000000000a165627a7a72305820b2f7cb58370efb17d97fd4ac7d8d5c2c8add2d050ab2a6dca265acfd5508030800295b55524c5d205b276a736f6e2868747470733a2f2f6170692e72616e646f6d2e6f72672f6a736f6e2d7270632f312f696e766f6b65292e726573756c742e72616e646f6d5b2264617461225d272c20275c6e7b226a736f6e727063223a2022322e30222c20226d6574686f64223a202267656e6572617465496e746567657273222c2022706172616d73223a207b20226170694b6579223a2022247b5b646563727970745d204250446933375578744c77373661656c693653427172395475746e794430724b4746776a45425638676b6d59344655754a316d554a595363592b582f5537642f6f4a497832756948493950626f634b65366634794d7274312b36647a347a52344f6e2f45694c2f5354764d6d424e3453394e476c3370654c3770334a7250753172543077576843794f5959746b754e79684f684c2b5a5461663834657d222c20226e223a20312c20226d696e223a20312c20226d6178223a20",
  "source": "pragma solidity ^0.4.23;\nimport \"./SafeMath.sol\";\nimport \"./oraclize_API.sol\";\n\ncontract Lottery is usingOraclize {\n    /**\n    *   @dev Variables, Mappings & Modifiers\n    */\n    \n    using SafeMath for uint;\n    \n    bytes newProof;\n\n    address public owner;\n    address[] buyerPosition;\n    \n    uint public testValue;\n\n    uint constant gasLimitForOraclize = 175000;\n    uint public softCap;\n    uint public hardCap;\n    uint public ticketPrice;\n    uint public startTime;\n    uint public ticketsPurchased;\n    uint public playerCount;\n    \n    bool public isInitialized = false;\n    \n    mapping (address => uint) ownerTicketCount;\n    mapping (bytes32 => bool) validId;\n    \n    modifier onlyOwner() {\n        require(owner == msg.sender, \"Not owner\");\n        _;\n    }\n    \n    /**\n    *   @dev Events\n    */\n    \n    event lottoInitialized (\n        uint softCap,\n        uint hardCap,\n        uint ticketPrice,\n        uint startTime\n    );\n\n    event ticketPurchased (\n        address buyer,\n        uint amount\n    );\n\n    event logNumberReceived (\n        uint number\n    );\n    \n    event logQuery (\n        string description\n    );\n    \n    event winner (\n        address winner\n    );\n\n    /**\n    *   @dev Constructor\n    */\n    \n    constructor() public payable {\n        owner = msg.sender;\n        testValue = 1;\n        oraclize_setCustomGasPrice(1000000000 wei);\n        oraclize_setProof(proofType_TLSNotary | proofStorage_IPFS);\n    }\n\n    /**\n    *   @dev Helper/Getter functions\n    */\n\n    function getTicketAmount(address _owner) public view returns (uint) {\n        return (ownerTicketCount[_owner]);\n    }\n\n    function getValues() public view returns (uint, uint, uint) {\n        return (softCap, hardCap, startTime);\n    }\n    \n    /**\n    *   @dev Initialize the lottery with the appropriate values. Only available to contract owner.\n     */\n\n    function initialize(uint256 soft, uint256 hard, uint ticket, uint256 time) public onlyOwner {\n        require(!isInitialized, \"Lottery is already initialized!\");\n        isInitialized = true;\n        \n        softCap = soft;\n        hardCap = hard;\n        ticketPrice = ticket;\n        startTime = now + time;\n\n        emit lottoInitialized(softCap, hardCap, ticketPrice, startTime);\n        \n    }\n    \n    function _resetBalances() private {\n        ticketsPurchased = 0;\n        softCap = 0;\n        hardCap = 0;\n        ticketPrice = 0;\n        startTime = 0;\n        \n        for (uint i = 0; i < buyerPosition.length; i++) {\n            ownerTicketCount[buyerPosition[i]] = 0; \n        }\n        \n        buyerPosition.length = 0;\n        \n        \n    }\n\n    /**\n    *   @dev Give a free first ticket to anyone who has been verified. verification is done off-chain and the owner calls the function. (OnlyOwner)\n     */\n    \n    function freeTicket(address buyer) public onlyOwner {\n        require(isInitialized, \"Lottery is not initialized.\");\n        require(ownerTicketCount[buyer] == 0, \"Buyer already has tickets.\");\n\n        playerCount = playerCount.add(1);\n\n        ownerTicketCount[buyer] = ownerTicketCount[buyer].add(1);\n        ticketsPurchased = ticketsPurchased.add(1);\n\n        buyerPosition.push(buyer);\n\n        emit ticketPurchased(buyer, 1);\n    }\n\n    /**\n    *   @dev Buy an amount of tickets based on the amount of ether sent and the ticket price. Available to      all lottery participants.\n     */\n\n    function buyTicket() public payable {\n        require(isInitialized, \"Lottery is not initialized.\");\n        require(msg.value > 0, \"No ether sent.\");\n        \n        uint value = msg.value.div(ticketPrice);\n        ownerTicketCount[msg.sender] = ownerTicketCount[msg.sender].add(value);\n        ticketsPurchased = ticketsPurchased.add(value);\n\n        playerCount = playerCount.add(1);\n\n        //instead of having ticket IDs, this design tracks the order in which addresses participate.\n        buyerPosition.push(msg.sender);\n\n        emit ticketPurchased(msg.sender, value);\n    }\n    \n    /**\n     * @dev Oraclize callback function\n    */\n    \n    function __callback(bytes32 qId, string result, bytes proof) public {\n        require(msg.sender == oraclize_cbAddress(), \"Wrong address\");\n        require(validId[qId], \"Invalid ID\");\n        \n        newProof = proof;\n        \n        uint randomNumber = parseInt(result);\n        \n        emit logNumberReceived(randomNumber);\n        \n        validId[qId] = false;\n        \n        emit winner(getWinner(randomNumber));\n        \n    }\n    \n    /**\n     * @dev Oraclize query to random.org. Fetches one random number between 0 and the\n     * total amount of tickets purchased. Returns the value in the callback above and calls the winner. \n    */\n    \n    function drawWinner() public onlyOwner {\n        require(isInitialized, \"Lottery is not initialized\");\n        isInitialized = false;  \n        \n        _setQuery2();   \n        _setQuery123();\n        \n        bytes32 qId = oraclize_query(\"nested\", query123);\n        \n        validId[qId] = true;\n\n        emit logQuery(\"Oraclize query was sent. Standing by for response.\");\n    }\n    \n    /**\n     * @dev Get the lottery winner and return their address.\n    */\n    \n    function getWinner(uint randomNumber) private returns (address) {\n\n        uint[] memory ownerTicketAmount = new uint[](buyerPosition.length);\n        \n        for (uint i = 0; i<buyerPosition.length; i++) {\n            ownerTicketAmount[i] = ownerTicketCount[buyerPosition[i]];\n        }\n        \n        uint ticketSum = 0;\n        address winnerAddr;\n\n        for (uint p = 0; p<ownerTicketAmount.length; p++) {\n            ticketSum = ticketSum.add(ownerTicketAmount[p]);\n            if (ticketSum >= randomNumber) {\n                winnerAddr = buyerPosition[p];\n                break;\n            }\n        }\n\n        _resetBalances();\n        return winnerAddr;\n    }\n    \n    /**\n     * @dev Each part of the Oraclize query to be concatenated.\n    */\n    \n    string query1 = \"[URL] ['json(https://api.random.org/json-rpc/1/invoke).result.random[\\\"data\\\"]', '\\\\n{\\\"jsonrpc\\\": \\\"2.0\\\", \\\"method\\\": \\\"generateIntegers\\\", \\\"params\\\": { \\\"apiKey\\\": \\\"${[decrypt] BPDi37UxtLw76aeli6SBqr9TutnyD0rKGFwjEBV8gkmY4FUuJ1mUJYScY+X/U7d/oJIx2uiHI9PbocKe6f4yMrt1+6dz4zR4On/EiL/STvMmBN4S9NGl3peL7p3JrPu1rT0wWhCyOYYtkuNyhOhL+ZTaf84e}\\\", \\\"n\\\": 1, \\\"min\\\": 1, \\\"max\\\": \";\n    string query2;\n    string query3 = \", \\\"replacement\\\": false${[identity] \\\"}\\\"}, \\\"id\\\": 1${[identity] \\\"}\\\"}']\";\n    \n    string query123;\n    \n    /**\n     * @dev Setters and getters for queries.\n    */\n    \n    function _setQuery2() private {\n        query2 = uint2str(ticketsPurchased);\n    }\n    \n    function _setQuery123() private {\n        query123 = string(abi.encodePacked(query1, query2, query3));\n    }\n    \n    function getQuery() public view returns(string) {\n        return query123;\n    }\n    /**\n     * @dev Withdraw function. Only owner can withdraw contract funds.\n    */\n    \n    function withdraw() public onlyOwner {\n        msg.sender.transfer(address(this).balance);\n    }\n    \n    /**\n     * @dev Fallback function. Refunds ether to sender unless they are the owner.\n    */\n    \n    function() public payable {\n        if (msg.sender != owner) {\n            revert();\n        }\n    }\n\n\n\n}",
  "sourcePath": "/Users/CryptoWork/Desktop/Russel_Lottery/contracts/Lottery.sol",
  "compiler": {
    "name": "solc",
    "version": "0.4.24+commit.e67f0147.Emscripten.clang"
  },
  "schemaVersion": "2.0.1",
  "updatedAt": "2018-12-26T09:10:16.467Z"
}