{
  "contractName": "Lottery",
  "abi": [
    {
      "constant": true,
      "inputs": [],
      "name": "owner",
      "outputs": [
        {
          "name": "",
          "type": "address"
        }
      ],
      "payable": false,
      "stateMutability": "view",
      "type": "function"
    },
    {
      "inputs": [],
      "payable": false,
      "stateMutability": "nonpayable",
      "type": "constructor"
    },
    {
      "anonymous": false,
      "inputs": [
        {
          "indexed": false,
          "name": "softCap",
          "type": "uint256"
        },
        {
          "indexed": false,
          "name": "hardCap",
          "type": "uint256"
        },
        {
          "indexed": false,
          "name": "villaPrice",
          "type": "uint256"
        }
      ],
      "name": "lottoInitialized",
      "type": "event"
    },
    {
      "anonymous": false,
      "inputs": [
        {
          "indexed": false,
          "name": "buyer",
          "type": "address"
        },
        {
          "indexed": false,
          "name": "id",
          "type": "uint256"
        }
      ],
      "name": "ticletPurchased",
      "type": "event"
    },
    {
      "constant": false,
      "inputs": [
        {
          "name": "soft",
          "type": "uint256"
        },
        {
          "name": "hard",
          "type": "uint256"
        },
        {
          "name": "price",
          "type": "uint256"
        }
      ],
      "name": "initialize",
      "outputs": [],
      "payable": false,
      "stateMutability": "nonpayable",
      "type": "function"
    }
  ],
  "bytecode": "0x608060405234801561001057600080fd5b50336000806101000a81548173ffffffffffffffffffffffffffffffffffffffff021916908373ffffffffffffffffffffffffffffffffffffffff160217905550610265806100606000396000f30060806040526004361061004c576000357c0100000000000000000000000000000000000000000000000000000000900463ffffffff16806380d85911146100515780638da5cb5b14610092575b600080fd5b34801561005d57600080fd5b506100906004803603810190808035906020019092919080359060200190929190803590602001909291905050506100e9565b005b34801561009e57600080fd5b506100a7610214565b604051808273ffffffffffffffffffffffffffffffffffffffff1673ffffffffffffffffffffffffffffffffffffffff16815260200191505060405180910390f35b3373ffffffffffffffffffffffffffffffffffffffff166000809054906101000a900473ffffffffffffffffffffffffffffffffffffffff1673ffffffffffffffffffffffffffffffffffffffff161415156101ad576040517f08c379a00000000000000000000000000000000000000000000000000000000081526004018080602001828103825260098152602001807f4e6f74206f776e6572000000000000000000000000000000000000000000000081525060200191505060405180910390fd5b8260038190555081600481905550806005819055507f6425aa03bc1a1363e192b7303d8c49a427dd4bd20ca284a9a6237ede7e8f3fb060035460045460055460405180848152602001838152602001828152602001935050505060405180910390a1505050565b6000809054906101000a900473ffffffffffffffffffffffffffffffffffffffff16815600a165627a7a72305820f8edfb62e839a4862bce0bd3b777cd4529184ddb3d7a3b46d39f9f06ef58fe5f0029",
  "source": "pragma solidity ^0.4.23;\n\ncontract Lottery {\n    address public owner;\n\n    mapping (address => uint) ownerTicketCount;\n\n    struct Ticket {\n        uint16 id;\n        uint8 price;\n    }\n    \n    event lottoInitialized (\n        uint softCap,\n        uint hardCap,\n        uint villaPrice\n    );\n\n    event ticletPurchased (\n        address buyer,\n        uint id\n    );\n\n    mapping (address => Ticket) ownerToTicket;\n\n    uint softCap;\n    uint hardCap;\n    uint villaPrice;\n\n    constructor() public {\n        owner = msg.sender;\n    }\n\n    modifier onlyOwner() {\n        require(owner == msg.sender, \"Not owner\");\n        _;\n    }\n\n    function initialize(uint soft, uint hard, uint price) public onlyOwner {\n        softCap = soft;\n        hardCap = hard;\n        villaPrice = price;\n        emit lottoInitialized(softCap, hardCap, villaPrice);\n    }\n\n\n}",
  "sourcePath": "/Users/CryptoWork/Desktop/Russel_Lottery/contracts/Lottery.sol",
  "compiler": {
    "name": "solc",
    "version": "0.4.24+commit.e67f0147.Emscripten.clang"
  },
  "schemaVersion": "2.0.1",
  "updatedAt": "2018-11-22T08:09:45.247Z"
}